S00C0000525456542E73726563C8
S1130000A3C30000D2C30000D0C30000CEC30000CD
S1130010CCC30000CAC30000C8C30000C6C30000AC
S1130020C4C30000C2C30000C0C30000BEC30000BC
S1130030BCC30000BAC30000B8C30000B6C30000CC
S11300400C94C018B2C30000B0C30000AEC30000DB
S1130050ACC30000AAC30000A8C30000A6C30000EC
S1130060A4C30000A2C30000A0C300009EC30000FC
S11300709CC300009AC3000098C3000096C300000C
S113008094C3000092C3000090C300008EC300001C
S11300908CC300008AC3000088C3000086C300002C
S11300A084C3000082C3000080C300007EC300003C
S11300B07CC300007AC3000078C3000076C300004C
S11300C074C3000072C3000070C300006EC300005C
S11300D06CC300006AC3000068C3000066C300006C
S11300E064C300000C94B61860C300005EC3000033
S11300F05CC300005AC3000058C3000056C300008C
S113010054C3000052C3000050C300004EC300009B
S11301104CC300004AC3000048C3000046C30000AB
S113012044C3000042C3000040C300003EC30000BB
S11301303CC300003AC3000038C3000036C30000CB
S113014034C3000032C3000030C300002EC30000DB
S11301502CC300002AC3000028C3000026C30000EB
S11301600C94E8170C9454180C9440180C9414181C
S11301700C9480180C944A1818C3000016C300008D
S113018014C3000012C3000010C300000EC300001B
S11301900CC300000AC3000008C3000006C300002B
S11301A004C3000002C3000000C30000FEC200003C
S11301B0FCC20000FAC20000F8C20000F6C200004F
S11301C0F4C20000F2C20000F0C20000EEC200005F
S11301D0ECC20000EAC20000E8C20000E6C200006F
S11301E0E4C20000E2C20000E0C20000DEC200007F
S11301F0DCC20000DAC20000D8C200005809370986
S113020079099909BA09DB09FC091D0A3E0A5F0A42
S1130210800AA00AC10A1F083B085B0863086F082C
S113022083082B089208A708BB08D308EB08030926
S11302301B09E20A020B230B440B650B9D0EA50E52
S1130240A90EAD0EB10EA10EB50E00000000003EC9
S11302505B4F5B3E3E6B4F6B3E1C3E7C3E1C183C32
S11302607E3C181C577D571C1C5E7F5E1C00183C8E
S11302701800FFE7C3E7FF0018241800FFE7DBE7D7
S1130280FF30483A060E2629792926407F050507BE
S1130290407F05253F5A3CE73C5A7F3E1C1C08081A
S11302A01C1C3E7F14227F22145F5F005F5F0609DF
S11302B07F017F006689956A606060606094A2FF38
S11302C0A29408047E040810207E201008082A1C2A
S11302D008081C2A08081E101010100C1E0C1E0CF6
S11302E030383E3830060E3E0E0600000000000096
S11302F0005F00000007000700147F147F14242A05
S11303007F2A1223130864623649562050000807D6
S11303100300001C2241000041221C002A1C7F1CF7
S11303202A08083E080800807030000808080808F9
S1130330000060600020100804023E5149453E0060
S1130340427F400072494949462141494D331814BE
S1130350127F1027454545393C4A4949314121110D
S113036009073649494936464949291E00001400FF
S11303700000403400000008142241141414141422
S1130380004122140802015909063E415D594E7C80
S11303901211127C7F494949363E414141227F4135
S11303A041413E7F494949417F090909013E414193
S11303B051737F0808087F00417F41002040413F7E
S11303C0017F081422417F404040407F021C027F8D
S11303D07F0408107F3E4141413E7F090909063EE2
S11303E04151215E7F0919294626494949320301B1
S11303F07F01033F4040403F1F2040201F3F4038C3
S1130400403F631408146303047804036159494D9D
S113041043007F4141410204081020004141417FD3
S11304200402010204404040404000030708002049
S1130430545478407F284444383844444428384449
S113044044287F385454541800087E090218A4A480
S11304509C787F0804047800447D40002040403D9F
S1130460007F1028440000417F40007C0478047819
S11304707C080404783844444438FC1824241818AC
S1130480242418FC7C080404084854545424040408
S11304903F44243C4040207C1C2040201C3C4030F5
S11304A0403C44281028444C9090907C4464544C24
S11304B0440008364100000077000000413608007F
S11304C002010204023C2623263C1EA1A161123A29
S11304D04040207A38545455592155557941225475
S11304E0547842215554784020545579400C1E527A
S11304F0721239555555593954545459395554541F
S1130500580000457C410002457D420001457C4085
S11305107D1211127DF0282528F07C5455450020C9
S113052054547C547C0A097F4932494949323A443B
S113053044443A324A4848303A4141217A3A4240A6
S11305402078009DA0A07D3D4242423D3D40404078
S11305503D3C24FF2424487E4943662B2FFC2F2B4B
S1130560FF0929F620C0887E0903205454794100EC
S113057000447D413048484A32384040227A007A6B
S11305800A0A727D0D19317D2629292F2826292949
S1130590292630484D40203808080808080808086B
S11305A0382F10C8ACBA2F102834FA00007B000092
S11305B008142A142222142A1408AA005500AAAAEC
S11305C055AA55AA000000FF00101010FF001414D3
S11305D014FF001010FF00FF1010F010F01414149A
S11305E0FC001414F700FF0000FF00FF1414F404CF
S11305F0FC141417101F10101F101F1414141F00C4
S1130600101010F0000000001F101010101F101028
S11306101010F010000000FF101010101010101037
S113062010FF10000000FF140000FF00FF00001F77
S113063010170000FC04F414141710171414F40415
S1130640F40000FF00F714141414141414F700F742
S1130650141414171410101F101F141414F414106D
S113066010F010F000001F101F0000001F14000005
S113067000FC140000F010F01010FF10FF1414140C
S1130680FF141010101F00000000F010FFFFFFFF08
S1130690FFF0F0F0F0F0FFFFFF0000000000FFFFAC
S11306A00F0F0F0F0F3844443844FC4A4A4A347E33
S11306B002020606027E027E026355494163384403
S11306C0443C04407E201E2006027E020299A5E7D7
S11306D0A5991C2A492A1C4C7201724C304A4D4D72
S11306E0303048784830BC625A463D3E494949005A
S11306F07E0101017E2A2A2A2A2A44445F44444076
S1130700514A444040444A51400000FF0103E08004
S1130710FF000008086B6B083612362436060F09F2
S11307200F06000018180000001010003040FF01F0
S113073001001F01011E00191D1712003C3C3C3C26
S1130740000000000000CF1911241FBECFEFCDBF61
S1130750DFE3DEBF00E00CBF11E2A0E0B0E2EEEBAD
S1130760F0E400E00BBF02C007900D92AA31B1077C
S1130770D9F721E2AAE1B1E201C01D92AB32B2077E
S1130780E1F717E0C8E4D7E000E006C022970109CA
S1130790FE010BBF0E94491CC634D10780E0080744
S11307A0A9F70E9418190C945D200C94AB180895B5
S11307B02F923F924F925F926F927F928F929F926D
S11307C0AF92BF92CF92DF92EF92FF920F931F935B
S11307D0CF93DF9300D01F92CDB7DEB75C016B835C
S11307E07C836A0149011801B801641B750B8827D1
S11307F077FD8095982F0E94A81B2B013C01E8945B
S113080077F8B4012B813C81621B730B882777FD39
S11308108095982F0E94A81B9B01AC015F7711E083
S113082000E0C301B2010E940C1C18160CF010E089
S1130830612E702E6114710459F0982D892D410197
S1130840292E382E9B818C81CB82DC82C92ED82E16
S11308508B819C81881699065CF49C2D8D2D6101F9
S1130860292E382E9B818C818B829C82892E982EF6
S1130870D401EB81FC81AE1BBF0BA983BA83B10108
S11308806C197D09882777FD8095982F0E94A81BF5
S11308909F770E94751B2B0109811A81112314F47F
S11308A00F5F1F4F15950795C214D30424F4222417
S11308B02394312C03C022242A94322C2B813C8192
S11308C08216930674F16114710469F0D501ED91F7
S11308D0FC910190F081E02D97014B815C81B60180
S11308E0C50119950CC0D501ED91FC910190F081E1
S11308F0E02D9701A6016B817C81C501199504192E
S1130900150932F4C20CD31CE981FA810E0F1F1FA2
S11309102B813C812F5F3F4F2B833C8382169306B0
S113092094F62496CDBFDEBFDF91CF911F910F9136
S1130930FF90EF90DF90CF90BF90AF909F908F90FB
S11309407F906F905F904F903F902F9008956F929B
S11309507F928F929F92AF92BF92CF92DF92EF924B
S1130960FF920F931F93CF93DF93EC015B016A0116
S113097039014801E881F9810680F781E02D87017A
S11309801995E881F981A601480D591D4150510975
S11309900680F781E02D9301B501CE011995E88118
S11309A0F9810480F581E02D9401A601B501CE0101
S11309B01995E881F981A60CB71CB501615071093C
S11309C00480F581E02D9401A601CE011995DF91F3
S11309D0CF911F910F91FF90EF90DF90CF90BF9038
S11309E0AF909F908F907F906F900895EF92FF92B9
S11309F00F931F93DC01ED91FC91240F351F2150BF
S1130A0031090280F381E02D780189019B01199558
S1130A101F910F91FF90EF900895EF92FF920F9323
S1130A201F93DC01ED91FC91260F371F21503109F2
S1130A300280F381E02D78018A0119951F910F91AD
S1130A40FF90EF9008956F927F928F929F92AF9252
S1130A50BF92CF92DF92EF92FF920F931F93CF93A7
S1130A60DF936C01EB014A0158013B01620E731ED6
S1130A706615770584F4D601ED91FC910480F58127
S1130A80E02D87019501A401BE01C60119952196A7
S1130A90C615D70584F3DF91CF911F910F91FF9075
S1130AA0EF90DF90CF90BF90AF909F908F907F900A
S1130AB06F900895EF92FF920F931F93DC01ED91D5
S1130AC0FC91119718960D911C91199716962D91DA
S1130AD03C9117970284F385E02D7B0140E050E0C0
S1130AE060E070E019951F910F91FF90EF900895C9
S1130AF00895FC0189E390E2808391836283738388
S1130B00448355836683778340875187158A128689
S1130B1013861486158621E0248B8FEF9FEF828B3A
S1130B20938B808B918B268B08952F923F924F92BB
S1130B305F926F927F928F929F92AF92BF92CF9269
S1130B40DF92EF92FF920F931F93CF93DF93CDB772
S1130B50DEB76097CDBFDEBF4C0109831A83EC82F8
S1130B60FD82CB82DC0116968D919C9117976817B4
S1130B7079070CF0C6C018968D919C911997481767
S1130B8059070CF0BEC06C2C712CC301880F991F3F
S1130B90860D971D880F991F860F971F019799231C
S1130BA00CF4AFC0C301880F991F880F991F880FD9
S1130BB0991F840F951F019799230CF4A2C030E06C
S1130BC0C901880F991F880F991F280F391F130116
S1130BD06E837F83688779871A86265B3D4FF90188
S1130BE0E61BF70BED87FE874B875C87FA85F530AC
S1130BF009F477C0ED85FE852E813F81E20FF31F56
S1130C00049170C090FE25C03B81313081F4AF85E2
S1130C10B889ED91FC9111970190F081E02D298123
S1130C203A81A5016E817F81CD0119953DC0AF85C3
S1130C30B889ED91FC9111970284F385E02DE98048
S1130C40FA8083019301A601682D742DCD011995B5
S1130C502BC0EC81FD8129813A81E217F30721F150
S1130C603B81313081F4AF85B889ED91FC911197C6
S1130C700190F081E02D2C813D81A5016E817F8161
S1130C80CD01199511C0AF85B889ED91FC911197EB
S1130C900284F385E02DEC80FD8083019301A6019D
S1130CA0682D742DCD01199596945A94C20CD31CB9
S1130CB0BFEFAB1ABB0A5110A5CF8F849888EA8581
S1130CC0EF5FEA8728853985220D331D2887398708
S1130CD08E819F8101968E839F83E63009F086CFB3
S1130CE010C000E018854984CB84DC84AC2CBD2C76
S1130CF06894552453F8C401902E812E8F87988BC5
S1130D0081CF6096CDBFDEBFDF91CF911F910F9150
S1130D10FF90EF90DF90CF90BF90AF909F908F9017
S1130D207F906F905F904F903F902F900895CF9257
S1130D30EF92FF920F931F93CF93DF93EC016A30EE
S1130D4079F42C898C859D8538E0239F800D911D35
S1130D5011248C879D878E859F858A879B873CC0BD
S1130D606D30D1F1EA88FB88088919894C855D8545
S1130D708A859B85CC88262FBC01CE01D6DE2C89A2
S1130D8030E0C901880F991F820F931F880F991FA4
S1130D904A855B85840F951F8A879B874E894423E8
S1130DA0D9F04AEF4203B001439F700D11244E81E4
S1130DB05F81460F571F4817590774F4220F331FDA
S1130DC0220F331F220F331F8C859D85280F391F57
S1130DD02C873D871A861B86DF91CF911F910F9137
S1130DE0FF90EF90CF900895FC016287738744874A
S1130DF05587668777870895611101C061E0FC011A
S1130E00648B0895FC01608B718B428B538B089526
S1130E10FC01668B0895FC016370658B613079F089
S1130E2028F0623019F0633091F409C08281938113
S1130E3086839783848195818087918708958481AF
S1130E409581868397838281938180879187089592
S1130E50CF92EF920F93CF93DF93EC0140E850E0F1
S1130E6060E870E00E94641A8DE0E6E0F0E2DE01E2
S1130E70989601900D928A95E1F78DE0E3E1F0E216
S1130E80DE01D59601900D928A95E1F7FE01EE5BA5
S1130E90FF4F1082319681E08083319682E0808317
S1130EA0319686E080830F2EF0EFCF2EF02D0F2E9B
S1130EB0F1E2EF2EF02D00E023E040E060EA79E07B
S1130EC0CE010E94771AFE01E659FF4F10821EA23E
S1130ED01FA23196108235978FEF8083B09720E060
S1130EE030E080E381932F5F3F4F24323105D1F707
S1130EF0E0E4F8E0108280E1818388EE93E080A74B
S1130F0091A7178287E08083DF91CF910F91EF90B3
S1130F10CF9008951F93CF93DF93EC010E940A1B97
S1130F20FC011081612FCE010E94F61A1E3329F4B0
S1130F30C659DF4F88818F5F8883812FDF91CF91DE
S1130F401F9108950F931F93CF93DF93EC010E9499
S1130F50021B81110AC0CE010E940A1B8C01CE0122
S1130F600E94061BF801808307C0CE010E940A1B61
S1130F70FC0123812C7F2383DF91CF911F910F915B
S1130F800895FF920F931F93CF93DF93EC018B018E
S1130F90CE010E94FE1A811110C0CE010E94FA1ADD
S1130FA0F82ED801ED91FC910088F189E02D682F8D
S1130FB0C8011995BAE0FB1611F00000E9CFDF91E2
S1130FC0CF911F910F91FF900895FF920F931F935C
S1130FD0CF93DF938B01EC01CE010E94FE1A8111A5
S1130FE0FBCFCE010E94FA1AF82ED801ED91FC91A4
S1130FF00088F189E02D682FC8011995BEE3FB1222
S1131000EBCFDF91CF911F910F91FF900895CF9275
S1131010DF92EF92FF920F931F93CF93DF93EC0134
S1131020FC01E959FF4F6083462F50E040325105DF
S113103008F06BC3FA01E250FF4F0C94341C64E2D5
S11310400E94E01A64E2CE010E94E01A64E2CE013A
S11310500E94E01A5AC36DE20E94E01A6DE2CE01CA
S11310600E94E01A6DE2CE010E94E01A6AE0CE010D
S11310700E94E01A4AC3C82EDD2E63E40E94E01ADF
S11310806CE2CE010E94E01A7E018AE1E80EF11CB6
S113109000E010E0F70161917F018C2D9D2D0E94ED
S11310A0E01A0F5F1F4F0C301105A1F76AE0CE0163
S11310B00E94E01A2AC369E40E94E01A6AE0CE01A1
S11310C00E94E01A22C367E40E94E01A6BE4CE0196
S11310D00E94E01A6AE0CE010E94E01A16C363E59A
S11310E00E94E01A66E4CE010E94E01A6CE2CE018E
S11310F00E94E01A61E3CE010E94E01A6AE0CE0188
S11311000E94E01A02C362E50E94E01A6CE2CE017A
S11311100E94E01A61E3CE010E94E01A6AE0CE0167
S11311200E94E01A61E4CE010E94E01A64E5CE0157
S11311300E94E01A69E4CE010E94E01A6DE0CE013B
S11311400E94E01A6AE0CE010E94E01ADEC261E465
S11311500E94E01A64E5CE010E94E01A6AE5CE011D
S11311600E94E01A6DE0CE010E94E01A6AE0CE010E
S11311700E94E01ACAC261E40E94E01A64E5CE014A
S11311800E94E01A65E4CE010E94E01A60E3CE01F9
S11311900E94E01A6DE0CE010E94E01A6AE0CE01DE
S11311A00E94E01AB2C261E40E94E01A64E5CE0132
S11311B00E94E01A6CE4CE010E94E01A61E3CE01C1
S11311C00E94E01A6DE0CE010E94E01A6AE0CE01AE
S11311D00E94E01A9AC261E40E94E01A64E5CE011A
S11311E00E94E01A68E4CE010E94E01A60E3CE0196
S11311F00E94E01A6DE0CE010E94E01A6AE0CE017E
S11312000E94E01A82C261E40E94E01A64E5CE0101
S11312100E94E01A63E5CE010E94E01A61E3CE0168
S11312200E94E01A6DE0CE010E94E01A6AE0CE014D
S11312300E94E01A6AC261E40E94E01A64E5CE01E9
S11312400E94E01A63E5CE010E94E01A60E5CE0137
S11312500E94E01A60E3CE010E94E01A6DE0CE0124
S11312600E94E01A6AE0CE010E94E01A4EC260E3D6
S11312700E94E01A61E3CE010E94E01A60E3CE010D
S11312800E94E01A63E4CE010E94E01A6DE0CE01F0
S11312900E94E01A6AE0CE010E94E01AFE01E859B9
S11312A0FF4F80E38083C759DF4F83E488832DC2D7
S11312B060E30E94E01A61E3CE010E94E01A60E359
S11312C0CE010E94E01A64E4CE010E94E01A6DE0AF
S11312D0CE010E94E01A6AE0CE010E94E01AFE01EB
S11312E0E859FF4F80E38083C759DF4F84E4888344
S11312F00CC260E30E94E01A61E3CE010E94E01A8E
S113130061E3CE010E94E01A61E3CE010E94E01A7B
S11313106DE0CE010E94E01A6AE0CE010E94E01A5C
S1131320FE01E859FF4F81E38083C759DF4F88836B
S1131330ECC160E30E94E01A61E3CE010E94E01A6E
S113134065E3CE010E94E01A63E4CE010E94E01A34
S11313506DE0CE010E94E01A6AE0CE010E94E01A1C
S1131360FE01E859FF4F85E38083C759DF4F83E4CB
S11313708883CBC160E30E94E01A61E3CE010E943E
S1131380E01A65E3CE010E94E01A65E4CE010E94F2
S1131390E01A6DE0CE010E94E01A6AE0CE010E94DC
S11313A0E01AFE01E859FF4F85E38083C759DF4FF8
S11313B085E48883AAC160E30E94E01A61E3CE0158
S11313C00E94E01A66E3CE010E94E01A67E3CE01B0
S11313D00E94E01A6DE0CE010E94E01A6AE0CE019C
S11313E00E94E01AFE01E859FF4F86E38083C75943
S11313F0DF4F87E3888389C160E30E94E01A61E3D9
S1131400CE010E94E01A60E3CE010E94E01A64E378
S1131410CE010E94E01A6DE0CE010E94E01A6AE05B
S1131420CE010E94E01AFE01E859FF4F80E3808359
S1131430C759DF4F84E3888368C160E30E94E01AE0
S113144061E3CE010E94E01A62E3CE010E94E01A39
S113145066E4CE010E94E01A6DE0CE010E94E01A1B
S11314606AE0CE010E94E01AFE01E859FF4F82E3D0
S11314708083C759DF4F86E4888347C160E30E94B5
S1131480E01A61E3CE010E94E01A68E3CE010E94F3
S1131490E01A67E3CE010E94E01A6DE0CE010E94DB
S11314A0E01A6AE0CE010E94E01AFE01E859FF4FFB
S11314B088E38083C759DF4F87E3888326C160E3CD
S11314C00E94E01A61E3CE010E94E01A64E3CE01B7
S11314D00E94E01A66E3CE010E94E01A6DE0CE019C
S11314E00E94E01A6AE0CE010E94E01AFE01E85967
S11314F0FF4F84E38083C759DF4F86E3888305C1A8
S113150060E30E94E01A61E3CE010E94E01A63E303
S1131510CE010E94E01A63E3CE010E94E01A6DE05E
S1131520CE010E94E01A6AE0CE010E94E01AFE0198
S1131530E859FF4F83E38083C759DF4F8883E5C0B1
S113154060E30E94E01A61E3CE010E94E01A65E3C1
S1131550CE010E94E01A69E3CE010E94E01A6DE018
S1131560CE010E94E01A6AE0CE010E94E01AFE0158
S1131570E859FF4F85E38083C759DF4F89E38883A8
S1131580C4C060E30E94E01A61E3CE010E94E01A45
S113159066E3CE010E94E01A68E3CE010E94E01ADD
S11315A06DE0CE010E94E01A6AE0CE010E94E01ACA
S11315B0FE01E859FF4F86E38083C759DF4F88E374
S11315C08883A3C060E30E94E01A61E3CE010E9415
S11315D0E01A60E3CE010E94E01A60E3CE010E94AB
S11315E0E01A6DE0CE010E94E01A6AE0CE010E948A
S11315F0E01AFE01E859FF4F80E38083C759DF4FAB
S1131600888383C060E30E94E01A61E3CE010E94F4
S1131610E01A62E3CE010E94E01A60E3CE010E9468
S1131620E01A6DE0CE010E94E01A6AE0CE010E9449
S1131630E01AFE01E859FF4F82E38083C759DF4F68
S113164080E3888362C060E30E94E01A61E3CE0114
S11316500E94E01A64E3CE010E94E01A60E3CE0126
S11316600E94E01A6DE0CE010E94E01A6AE0CE0109
S11316700E94E01AFE01E859FF4F84E38083C759B2
S1131680DF4F80E3888341C060E30E94E01A61E396
S1131690CE010E94E01A66E3CE010E94E01A60E3E4
S11316A0CE010E94E01A6DE0CE010E94E01A6AE0C9
S11316B0CE010E94E01AFE01E859FF4F86E38083C1
S11316C0C759DF4F80E3888320C060E30E94E01A9B
S11316D061E3CE010E94E01A68E3CE010E94E01AA1
S11316E060E3CE010E94E01A6DE0CE010E94E01A90
S11316F06AE0CE010E94E01AFE01E859FF4F88E338
S11317008083C759DF4F80E38883DF91CF911F9196
S11317100F91FF90EF90DF90CF9008955F926F92BA
S11317207F928F929F92AF92BF92CF92DF92EF926D
S1131730FF920F931F93CF93DF936C01EB016DE046
S113174066DCBE01C6011DDC61E1C60160DCBE01D0
S1131750C60117DC62E1C6015ADC2FEF33E284EFE5
S113176090E02150304080409040D9F700C0000004
S11317700C2D1D2D0CC0802F912F0E94FA1AE88188
S1131780F9810088F189E02D682FCE011995A02EEA
S1131790912E802F912F0E94FE1A882361F36DE011
S11317A0C60135DCBE01C601ECDB0F2EF4E65F2E6C
S11317B0F02D612CE881F9810484F585E02D60E049
S11317C070E0CE0119957C2E8D2E40E050E060E053
S11317D070E0CE0109DB6EE0C60119DCE52CF62CC5
S11317E000E010E02FEF35EA8EE0215030408040D9
S11317F0E1F700C0000013C08A2D992D0E94FA1A47
S1131800B82EE881F9810088F189E02D682F872DB1
S1131810982D19959AE0B91202C00F5F1F4F8A2DB7
S1131820992D0E94FE1A882339F321E0E21AF10867
S1131830E114F104B9F60130110509F0BBCF6BE4F2
S113184070E2CE01DAD765E1C601E1DBBE01C60173
S1131850BCDB66E1C601DBDBBE01C601B6DB67E1CA
S1131860C601D5DBBE01C601B0DB68E1C601CFDB32
S1131870BE01C601AADB6AE1C601C9DBBE01C6011D
S1131880A4DBF601E659FF4F108261E0C601BFDB1D
S1131890BE01C6019ADB81E0DF91CF911F910F91C8
S11318A0FF90EF90DF90CF90BF90AF909F908F907C
S11318B07F906F905F900895E62FF72FDC015A9682
S11318C020E030E061916D932F5F3F4F2C30310564
S11318D0C9F7BA0123CF08953F924F925F926F9256
S11318E07F928F929F92AF92BF92CF92DF92EF92AC
S11318F0FF920F931F93CF93DF938C01FC01E65962
S1131900FF4F8081882309F4B7C0402E512E7801FF
S113191028E6E20EF11C580139E6A30EB11C480179
S113192086E6880E911C6801E7E6CE0ED11CE8011C
S1131930C659DF4F842D952D0E94FA1A842D952DBA
S11319400E94FA1A842D952D0E94FA1A842D952D41
S11319500E94FA1A782E842D952D0E94FA1A682E68
S1131960842D952D0E94FA1AF7018081871104C0F5
S1131970F5018081861571F0842D952D0E94FA1A47
S11319808E3309F470C0842D952D0E94FE1A88238D
S113199099F369C0F4012081F601408130E0842F7D
S11319A0992787FD90952817390709F45CC0F80139
S11319B0E40FF11D65A8712C80A59301280F311D3A
S11319C06216730664F5312C842D952D0E94FA1A43
S11319D0803221F431E0631A710810C0F801E60D79
S11319E0F71DEA5BFF4F9081981302C0339406C041
S11319F0F801E60DF71DEA5BFF4F80838FEF681A4D
S1131A00780AF6018081F801E80FF11D25A980A567
S1131A1090E0820F911D68167906B4F201C0312C52
S1131A20842D952D0E94FA1A8E3331F0842D952D34
S1131A300E94FE1A8823A1F3F6018081F801E80FC1
S1131A40F11D90A5931579F021E030E002C0220F3A
S1131A50331F8A95E2F7C901F80126A137A1822B29
S1131A60932B86A397A3F8948881815088837894D4
S1131A70888181115FCF02C080E001C081E0DF91E5
S1131A80CF911F910F91FF90EF90DF90CF90BF9077
S1131A90AF909F908F907F906F905F904F903F900A
S1131AA00895FC0186A197A10895FC0116A217A22E
S1131AB008950F931F93CF93DF93EC018C01055985
S1131AC01F4FF8018081FE01E80FF11D87FDFA9593
S1131AD0EE5BFF4F6081CE019ADAF80180818F5F5F
S1131AE0843011F0808303C0C559DF4F1882DF9121
S1131AF0CF911F910F910895FC01E60FF11D25A9C7
S1131B00DC01AA59BF4F6C93DC01A20FB11DAA5B83
S1131B10BF4F6C9141E0420FDC01A40FB11DAA5BE1
S1131B20BF4F7C9140A5443079F432E0320FFC0180
S1131B30E30FF11DEA5BFF4F30812D5FFC01E20FE3
S1131B40F11DEA5BFF4F5081FC01EA59FF4F2FEF73
S1131B502083832F952F0895CF93DF93EC01CB013E
S1131B60688379830E944D1C8A839B83DF91CF9184
S1131B700895FC0182819381FC01E60FF71F8081A7
S1131B800895FC0182819381FC01E60FF71F4083D5
S1131B9008950F931F93CF93DF93EC018B01089665
S1131BA0DBDF088319831C821D821E821F821A8236
S1131BB01B82DF91CF911F910F910895CF93DF93F3
S1131BC0EC012A813B818881998128173907E1F04A
S1131BD08C819D81462FBC01CE010896D2DF8C8179
S1131BE09D8101968C839D83288139818217930777
S1131BF034F08C819D81821B930B8C839D838A811D
S1131C009B8101968A839B83DF91CF910895CF9323
S1131C10DF93EC018A819B81892BE9F06E817F81BE
S1131C20CE010896A6DF2E813F812F5F3F4F2E8382
S1131C303F83488159812417350734F02E813F8131
S1131C40241B350B2E833F832A813B81215031098C
S1131C502A833B8301C080E0DF91CF910895FC018A
S1131C604281538181E0208131814217530709F079
S1131C7080E00895FC012281338181E0232B09F067
S1131C8080E00895AF92BF92CF92EF920F93CF93DB
S1131C90DF93EC018BE0E0E2F0E2DE0101900D92D3
S1131CA08A95E1F78AE0EBE2F0E2DE011B9601900F
S1131CB00D928A95E1F7FE01EE5AFF4F108231969C
S1131CC010825E0184E5A80EB11C40E550E06CED85
S1131CD070E0C5010E94641A0F2EF0E5CF2EF02D9E
S1131CE00F2EFCE0EF2EF02D00E023E040E060EB4F
S1131CF079E0C5010E94771A1D8A1E8ADE01579673
S1131D0080E01D928F5F8B33E1F7DF91CF910F91CC
S1131D10EF90CF90BF90AF9008950F931F93CA0197
S1131D2020E3FA012083062F10E00730110500F5A7
S1131D30F801E25EFE4F0C94341C20E3FA01218387
S1131D4017C021E3FA01218313C022E3FA0121839E
S1131D500FC023E3FA0121830BC024E3FA0121839A
S1131D6007C025E3FA01218303C028E3FA01218394
S1131D701F910F910895AF92BF92CF92DF92EF928D
S1131D80FF920F931F93CF93DF9300D000D0CDB772
S1131D90DEB76C01A62E4E831D822D818C010C5A58
S1131DA01F4F49E050E066E570E2C8010E940E1B37
S1131DB08D83BD80CE0101967C01AC016A2DC601E4
S1131DC0ACDF2B2D42E050E0BC01C8010E940E1B89
S1131DD08D832D8144E050E060E670E2C8010E94EA
S1131DE00E1B8D838E811F928F9385E690E29F93C5
S1131DF08F93FF92EF920E94971D2D8143E050E054
S1131E00B701C8010E940E1B8D832D8144E050E070
S1131E106AE670E2C8010E940E1B8D83DD808D810D
S1131E2040E1B70190E00E94741D2D2D42E050E086
S1131E30BC01C8010E940E1B2D8142E050E06CE7FA
S1131E4070E2C8010E940E1B0F900F900F900F902C
S1131E500F900F902696CDBFDEBFDF91CF911F91DB
S1131E600F91FF90EF90DF90CF90BF90AF900895C7
S1131E70CF93DF93EC0120E04FE050E06FE670E297
S1131E808C5A9F4F0E940E1B2FEF83EC99E0215038
S1131E9080409040E1F700C0000040E060E0CE01E7
S1131EA06ADF2FEF83EC99E0215080409040E1F706
S1131EB000C0000040E065E0CE015DDF2FEF83EC61
S1131EC099E0215080409040E1F700C0000040E0DC
S1131ED062E0CE0150DF2FEF83EC99E02150804087
S1131EE09040E1F700C0000040E061E0CE0143DF34
S1131EF02FEF83EC99E0215080409040E1F700C03F
S1131F00000041E063E0CE0136DF2FEF83EC99E07F
S1131F10215080409040E1F700C0000040E064E0C0
S1131F20CE0129DF2FEF83EC99E0215080409040CF
S1131F30E1F700C0000040E066E0CE011CDFDF9165
S1131F40CF910895FF920F931F93CF93DF93EC01EA
S1131F508C010C5A1F4FC8010E940A1BFC01F0801F
S1131F60FE01EE5AFF4F8081882361F06F2DC80176
S1131F700E94F61AFAE0FF1205C0CD5ADF4F88819D
S1131F808F5F8883DF91CF911F910F91FF90089508
S1131F905F926F927F928F929F92AF92BF92CF92F5
S1131FA0DF92EF92FF920F931F93CF93DF934C0135
S1131FB0FC01ED5AFF4F8081882309F47AC08230F6
S1131FC088F0E401CC5ADF4F8F01CE010E94FA1A47
S1131FD08A30D9F7F894F80180818150808378940D
S1131FE0823098F7E401CC5ADF4F6C2E5D2ECE017F
S1131FF00E94FA1A8C32C9F754016401FAE0CF0E38
S1132000D11C8401EE24E394F12CE801CA19DB0904
S1132010F80171908F01C70102C0880F991FCA95FA
S1132020E2F7EC0114C0272D30E0F401E20FF31FB6
S11320309789981739F0F401458956894C2B5D2B03
S1132040458B568B7394F401E20FF31F878B862D17
S1132050952D0E94FA1A8C3231F7F80140817416DA
S1132060B0F4272D30E0F401E20FF31F87898823B1
S113207039F0F401858996898C2B9D2B858B968B61
S11320807394F401E20FF31F178A741650F30C15BE
S11320901D0509F0BACF862D952D0E94FA1A8A30B3
S11320A0D1F7F894F401ED5AFF4F80818150808379
S11320B07894DF91CF911F910F91FF90EF90DF9073
S11320C0CF90BF90AF909F908F907F906F905F90D4
S11320D00895FC01858996890895FC01158A168A5C
S11320E00895EF92FF920F931F93CF93DF93C62F20
S11320F0D0E0FC01EC0FFD1F0081202F30E0638550
S11321007901E60EF11C2E153F0564F5FC01E20F82
S1132110F31F2789DA012C932789222341F1102FF9
S1132120C80FD91FBE01655F7F4F0CC0FC01E20FD1
S1132130F31F27897A01EA0EF11CD7012C93278912
S11321402223A9F01F5FA12FA01B212F30E0B8810B
S1132150FB01F080EF2DF0E0EB0FF11D2E173F0790
S11321602CF301C0A0E0FA01EA0FF11D1082CA01AC
S1132170DF91CF911F910F91FF90EF9008950F93EE
S11321801F93CF93DF93EC01CC5ADF4FCE010E9413
S1132190021B81110AC0CE010E940A1B8C01CE01D0
S11321A00E94061BF801808307C0CE010E940A1B0F
S11321B0FC0123812C7F2383DF91CF911F910F9109
S11321C008958E5A9F4F21E0FC0120830895DC017D
S11321D0E0E6F6E08181816081838481816084838B
S11321E08FEFE0E4F6E08183E0E0F6E0818188604F
S11321F08183818184608183818182608183818103
S11322008160818384818160848384818460848308
S113221084818860848384818260848355961C923F
S113222055971A961D921C921B971C961D921C92F0
S11322301D9781E054968C93549750961D921C924E
S1132240519780E491E016968D939C93179780EEB6
S113225091E018968D939C9319970895CF93DF93EB
S1132260EC0140EE51E060E471E00E9479058FECEE
S113227090E288839983CE01AADFDF91CF910895FC
S1132280E0E4F6E06483E0E0F6E084818B7F84831D
S11322908481846084830895CF93DF93E0E0F6E043
S11322A02481216024832481246024832481286060
S11322B02483E0E6F6E024812E7F2483E7EEF3E036
S11322C03197F1F700C00000E0E6F6E024812160D8
S11322D02483C0E0D6E02C812E7F2C832C812D7F9B
S11322E02C8360E0CDDF8C818B7F8C838C81846038
S11322F08C838C818B7F8C838C8184608C838C8198
S11323008B7F8C838C8184608C838C8181608C83B3
S1132310DF91CF910895EF92FF920F931F93CF9384
S1132320DF93CDB7DEB72597CDBFDEBF8C011D820D
S1132330B3DF2FE788E391E0215080409040E1F73C
S113234000C00000E0E0F6E084818E7F84830F2EDD
S1132350E12CF6E0FF2EF02D49C0ED8181E08E0FD7
S11323608D83F0E0EB57FF4D80818C83ED8181E01C
S11323708E0F8D83F0E0EB57FF4D80818B838C8132
S113238081110AC0EFEBF4ED21E0E150F040204070
S1132390E1F700C000002AC0F70184818E7F8483A6
S11323A084818D7F84836C81C8016ADFF701848115
S11323B0826084831A829A818B81981798F4ED81C4
S11323C081E08E0F8D83F0E0EB57FF4D8081898390
S11323D06981C80155DF8A818F5F8A839A818B81E5
S11323E0981768F3F7018481816084838D81863432
S11323F008F4B3CF2596CDBFDEBFDF91CF911F91F7
S11324000F91FF90EF9008954F925F926F927F9299
S1132410AF92BF92CF92DF92EF92FF920F931F93EE
S1132420CF93DF93CDB7DEB72897CDBFDEBF8C0146
S1132430D62EC72E29013A01B72EA62E0F2EE12C37
S1132440F6E0FF2EF02DF70184818E7F8483848152
S11324508D7F84836CE2C80113DFF701848182607D
S113246084836C2DC8010CDF6D2DC80109DFCD10EC
S113247038C01D821E821F82188673016201F1E03A
S1132480CF1AD108E108F1088D819E81AF81B8850A
S11324908C159D05AE05BF0508F051C0E0E0F6E0DF
S11324A084818B7F848384818460848384818B7F13
S11324B084838481846084838D819E81AF81B88587
S11324C00196A11DB11D8D839E83AF83B8878D8135
S11324D09E81AF81B8858C159D05AE05BF0500F3BF
S11324E02EC019821A821B821C827301620181E050
S11324F0C81AD108E108F10889819A81AB81BC81AD
S11325008C159D05AE05BF05D0F46B2DC801B8DE52
S11325106A2DC801B5DE89819A81AB81BC8101969F
S1132520A11DB11D89839A83AB83BC8349815A81E0
S11325306B817C814C155D056E057F0530F3E0E011
S1132540F6E08481816084832896CDBFDEBFDF916D
S1132550CF911F910F91FF90EF90DF90CF90BF909C
S1132560AF907F906F905F904F900895CF92DF92DD
S1132570EF92FF920F931F93CF93DF93EC016901C6
S11325807A0100E016E0F80184818E7F84838481DF
S11325908D7F8483CE0174DEF8018481826084831C
S11325A0F6E0FA95F1F700C06F2D77278827992771
S11325B0CE0166DE86E08A95F1F700C0B701882770
S11325C09927CE015DDEE6E0EA95F1F700C0992790
S11325D08F2D7E2D6D2DCE0153DEF6E0FA95F1F7A9
S11325E000C06C2DCE014CDEE0E0F6E08481816019
S11325F08483DF91CF911F910F91FF90EF90DF9033
S1132600CF900895CF92DF92EF92FF920F931F9392
S1132610CF93DF937C016A01C901C0E0D6E02C812D
S11326202E7F2C83AB0160E070E0BA01552744276C
S1132630A0E0B0E09A01AB01282B392B4A2B5B2B8D
S11326406AE2C70193DFA60160E070E0BA01552792
S1132650442720E030E0DB01CA01802B912BA22B20
S1132660B32B9C01AD016BE2C70180DF8C818160DB
S11326708C83DF91CF911F910F91FF90EF90DF90AA
S1132680CF900895FF920F931F93CF93DF93EC01A4
S11326900E940B07E0E0F6E084818E7F84838D89BD
S11326A0813031F088F0823041F0833041F010C045
S11326B00F2EF0EAFF2EF02D0BC0F12C09C00F2EC7
S11326C0F0E6FF2EF02D04C00F2EF0ECFF2EF02DBF
S11326D000E016E0F80184818D7F848366E3CE01F7
S11326E0CFDDF8018481826084836F2DCE01C8DD43
S11326F008851985015011092E813F812150310926
S113270040E050E060E070E0CE017CDFDF91CF91EB
S11327101F910F91FF900895CF92DF92EF92FF9255
S11327200F931F93CF93DF93EC01D22EC32E772305
S1132730C4F15523B4F18E819F81681779078CF514
S1132740888599854817590764F50F2EE12CF6E022
S1132750FF2EF02DF70184818E7F848308851985EF
S1132760015011098E819F819C0121503109CE01B4
S113277049DFF70184818E7F848384818D7F848304
S11327806CE2CE017DDDF7018481826084836C2D4F
S1132790CE0176DD6D2DCE0173DDF701848181607C
S11327A08483DF91CF911F910F91FF90EF90DF9081
S11327B0CF900895EF92FF920F931F93CF93DF93DF
S11327C0EC017B0108851985015011092E813F8197
S11327D02150310940E050E060E070E013DF20E078
S11327E038E542E050E0B701CE010EDEDF91CF9133
S11327F01F910F91FF90EF9008950F931F93CF9324
S1132800DF93EC01FB016081662379F08F010F5F98
S11328101F4FE881F9810088F189E02DCE011995D7
S1132820F80161918F016111F4CFDF91CF911F9174
S11328300F9108959AC508950F931F93CF93DF9333
S1132840EC0188819981DC01ED91FC910484F5858A
S1132850E02D60E070E0199588819981DC01ED91AB
S1132860FC910480F581E02D0FEF1FEF20E431E0AF
S113287040E050E06FEE70E0199588819981DC01A9
S1132880ED91FC910680F781E02D20EE31E047E7E1
S113289050E060E070E0199588819981DC01ED9148
S11328A0FC910680F781E02D20EE31E04FEE50E000
S11328B060E070E0199540E050E06FEF7FEF8881B1
S11328C099810E94020762E0888199810E94FC0636
S11328D042E350E068EC70E0888199810E94F4063C
S11328E061EE70E28881998188DF44EB50E068EC06
S11328F070E0888199810E94F40665EE70E2888117
S113290099817BDF4CE251E06AE070E08881998133
S11329100E94F40669EE70E2888199816EDF4CE2D0
S113292051E069EF70E0888199810E94F4066EEEAF
S113293070E28881998161DF4BE450E06DEA71E0D7
S1132940888199810E94F40663EF70E288819981FD
S113295054DF43EC50E06DEA71E0888199810E9474
S1132960F4066CEF70E28881998147DF69E0888121
S113297099810E94FC064EE150E06EE170E088818E
S113298099810E94F40669E071E28881998135DFBA
S11329904EE150E063E071E0888199810E94F40681
S11329A064E071E28881998128DF45E950E063E0C1
S11329B071E0888199810E94F40664E071E2888163
S11329C099811BDF68E0888199810E94FC0645E9B2
S11329D050E065E070E0888199810E94F40668E027
S11329E071E28881998109DF4AE050E06DEA71E083
S11329F0888199810E94F40688819981DC01ED9196
S1132A00FC910088F189E02D65E2199541E850E0D8
S1132A106DEA71E0888199810E94F4068881998128
S1132A20DC01ED91FC910088F189E02D65E21995B6
S1132A30DF91CF911F910F910895BF92CF92DF92B2
S1132A40EF92FF920F931F93CF93DF93CDB7DEB72F
S1132A502597CDBFDEBF8C01F62ECA014DD8E62ED8
S1132A60D72EC82EB92E81E0F81609F44BC0F816FB
S1132A7048F0A2E0FA1609F4DEC0B6E0FB1609F449
S1132A809AC018C14EE150E06EE170E0F801808117
S1132A9091810E94F40669E0D8018D919C910E9475
S1132AA0FC066D2D8E2D3CD2D82EE82EF12CB4E6EA
S1132AB0EB16F10458F4F80180819181DC01ED9169
S1132AC0FC910088F189E02D60E21995BAE0EB16DB
S1132AD0F10458F4F80180819181DC01ED91FC91BD
S1132AE00088F189E02D60E219954AE0BE016F5F2C
S1132AF07F4F8D2D90E0F8D7BC01F8018081918142
S1132B007CDED8C045E950E065E070E0D8018D91E5
S1132B109C910E94F40668E0F801808191810E94F2
S1132B20FC062B2D4C2D6D2D8E2D20D27C01803159
S1132B30F7E29F0730F00F2EFFE0EF2EF7E2FF2EB3
S1132B40F02D88EEE81683E0F80658F4D8018D914C
S1132B509C91DC01ED91FC910088F189E02D60E20B
S1132B601995B4E6EB16F10458F4F80180819181CB
S1132B70DC01ED91FC910088F189E02D60E219956A
S1132B80BAE0EB16F10458F4F80180819181DC017C
S1132B90ED91FC910088F189E02D60E219954AE0FD
S1132BA0BE016F5F7F4FC7019FD7BC01F8018081D1
S1132BB0918123DE7FC04EE150E063E071E0D801F3
S1132BC08D919C910E94F40669E0F80180819181C5
S1132BD00E94FC066D2D8E2DF7D1D82EE82EF12CF7
S1132BE0F4E6EF16F10458F4D8018D919C91DC01C0
S1132BF0ED91FC910088F189E02D60E21995BAE02D
S1132C00EB16F10458F4F80180819181DC01ED9117
S1132C10FC910088F189E02D60E219954AE0BE013B
S1132C206F5F7F4F8D2D90E05FD7BC01F8018081ED
S1132C309181E3DD3FC045E950E063E071E0D801F4
S1132C408D919C910E94F40669E0F8018081918144
S1132C500E94FC066D2D8E2DB9D1D82EE82EF12CB4
S1132C60F4E6EF16F10458F4D8018D919C91DC013F
S1132C70ED91FC910088F189E02D60E21995BAE0AC
S1132C80EB16F10458F4F80180819181DC01ED9197
S1132C90FC910088F189E02D60E219954AE0BE01BB
S1132CA06F5F7F4F8D2D90E01FD7BC01F8018081AD
S1132CB09181A3DD2596CDBFDEBFDF91CF911F911A
S1132CC00F91FF90EF90DF90CF90BF900895DF9227
S1132CD0EF92FF920F931F93CF93DF93CDB7DEB79D
S1132CE02F97CDBFDEBF8C01D62E7A01AE014F5F88
S1132CF05F4FC701F6D982E0D81629F0A4E0DA16AE
S1132D0009F45AC0BCC04CE251E06CE370E0F80135
S1132D10808191810E94F40662E0D8018D919C919A
S1132D200E94FC06F80180819181DC01ED91FC9107
S1132D300088F189E02D69811995F80180819181DC
S1132D40DC01ED91FC910088F189E02D6A811995EF
S1132D50F80180819181DC01ED91FC910088F18979
S1132D60E02D68EF1995F80180819181DC01ED91E6
S1132D70FC910088F189E02D60E21995BE016D5F38
S1132D807F4FF8018081918138DDD8018D919C912C
S1132D90DC01ED91FC910088F189E02D67E2199541
S1132DA0AE014F5F5F4F63E0C7019BD9BC01F801DF
S1132DB08081918122DD63C04CE251E061E371E0E6
S1132DC0D8018D919C910E94F40662E0F801808103
S1132DD091810E94FC06D8018D919C91DC01ED91BA
S1132DE0FC910088F189E02D69811995F8018081B1
S1132DF09181DC01ED91FC910088F189E02D6A81DB
S1132E001995F80180819181DC01ED91FC91008894
S1132E10F189E02D6B811995F80180819181DC01A4
S1132E20ED91FC910088F189E02D68EF1995F80186
S1132E3080819181DC01ED91FC910088F189E02D84
S1132E4060E21995BE016C5F7F4FF801808191812A
S1132E50D4DCD8018D919C91DC01ED91FC9100882A
S1132E60F189E02D67E21995AE014F5F5F4F65E090
S1132E70C70137D9BC01F80180819181BEDC2F964E
S1132E80CDBFDEBFDF91CF911F910F91FF90EF90E7
S1132E90DF900895BF92CF92DF92EF92FF920F934B
S1132EA01F93CF93DF938C016B017A01CB010E94B6
S1132EB0510DEC01C6010E94550D209761F0B12C13
S1132EC0C0FF04C0A6016B2DC801B7DDD695C79518
S1132ED0B3942097A9F7C701FCD8EC01C701FDD82A
S1132EE0209761F0D12CC0FF04C0A7016D2DC8014B
S1132EF0EEDED695C795D3942097A9F7DF91CF91AD
S1132F001F910F91FF90EF90DF90CF90BF900895A5
S1132F1090ED980F9A3010F087530895892F0895F3
S1132F20CF93DF93D62FF4DFC82F8D2FF1DF282F17
S1132F3030E0C90140E1C49F800D911D11244EE38E
S1132F40489F9001499F300D112436952795369559
S1132F502795ABE7B4E18ED496958795009711F049
S1132F608F5F01C080E0DF91CF9108950F931F938D
S1132F70CF93DF93C82FD62F842F022FC9DF182FAA
S1132F808C2FC6DFC82F8D2FC3DFD82F802FC0DF33
S1132F90482F50E080E1189F400D511D11242D2F22
S1132FA030E080E1C89F200D311D1124322F2227EB
S1132FB0CA01820F931F9695879596958795DF9101
S1132FC0CF911F910F91089580E0089580E00895B6
S1132FD01F920F920FB60F9211240BB60F922F93DC
S1132FE03F934F935F936F937F938F939F93AF938D
S1132FF0BF93EF93FF9380912021909121210E9410
S11330008A07FF91EF91BF91AF919F918F917F912B
S11330106F915F914F913F912F910F900BBE0F9045
S11330200FBE0F901F9018951F920F920FB60F921C
S113303011240BB60F922F933F934F935F936F938B
S11330407F938F939F93AF93BF93EF93FF9380915D
S11330501C2190911D210E94A20FFF91EF91BF911D
S1133060AF919F918F917F916F915F914F913F911C
S11330702F910F900BBE0F900FBE0F901F901895BD
S11330801F920F920FB60F9211240F900FBE0F9044
S11330901F9018951F920F920FB60F9211240F9044
S11330A00FBE0F901F9018951F920F920FB60F929C
S11330B011240BB60F922F933F934F935F936F930B
S11330C07F938F939F93AF93BF93EF93FF938091DD
S11330D02021909121210E94A207FF91EF91BF919D
S11330E0AF919F918F917F916F915F914F913F919C
S11330F02F910F900BBE0F900FBE0F901F9018953D
S11331001F920F920FB60F9211240BB60F922F93AA
S11331103F934F935F936F937F938F939F93AF935B
S1133120BF93EF93FF9380911C2190911D2127D889
S1133130FF91EF91BF91AF919F918F917F916F918B
S11331405F914F913F912F910F900BBE0F900FBE47
S11331500F901F9018951F920F920FB60F92112483
S113316000000F900FBE0F901F9018951F920F92A2
S11331700FB60F9211240F900FBE0F901F90189549
S11331801F920F920FB60F9211240BB60F922F932A
S11331903F934F935F936F937F938F939F93AF93DB
S11331A0BF93EF93FF93E0E0F8E010A211A28091A7
S11331B01A2190911B2157D180911A2190911B21A2
S11331C07BD18130944044F480911A2190911B2149
S11331D077D1813094402CF081E0E0EAF6E08583F9
S11331E004C081E0E0EAF6E08683FF91EF91BF91AD
S11331F0AF919F918F917F916F915F914F913F918B
S11332002F910F900BBE0F900FBE0F901F9018952B
S113321088ED84BF82E080935000E0E5F0E0818196
S113322081FFFDCF88ED84BF81E080934000089545
S1133230CF93DF93CDB7DEB7C35FD109CDBFDEBF78
S1133240F894E6DF2FEF87EA91E621508040904022
S1133250E1F700C00000E0E6F6E088E884838083BC
S113326080EB8093800681E08093A0068E01055256
S11332701F4FC8010E942E1100931E2110931F217D
S1133280C80149D860E070E0C80194DA63E0C8017D
S1133290F9D940E050E060E070E0C8010E94F40613
S11332A040E050E06FEF7FEFC8010E94020762E048
S11332B0C8010E94FC0661E0C8010E9408070A5D7B
S11332C01109C8010E94420E00931C2110931D2174
S11332D002591F4FC8010E94280700932021109310
S11332E02121E0EAF0E08281876082837894409132
S11332F01E2150911F216DE071E2CE0181599F4F33
S11333000E945C0CCE0101960E94380F60911E2130
S113331070911F21CE018E509F4F8CDACE018E50BA
S11333209F4F8ADACE0101960E94E11011E0112329
S113333029F0CE0181599F4F0E94590DCE01815928
S11333409F4F0E946C0C182FCE0101960E94C80F4B
S113335040911C2150911D216091202170912121C7
S1133360CE018E509F4F96DDE2CFFC0160837183C6
S11333700895CF93DF93EC0118D081E08C83E0E8CB
S1133380F6E08081837F8083808583FF03C08C8106
S113339082608C83CE0114D0DF91CF91089560ECCC
S11333A07AE082E291E2E5CF0895DC016D937C93AB
S11333B0119723E9FB012083ED91FC91118208957B
S11333C0DC01ED91FC918081806480830895FC018F
S11333D0208131812F5F3F4F2430310519F480E083
S11333E090E002C0822F932F808391830895DC01A3
S11333F0E0E0F2E083A180FFFDCF16968D919C91D1
S1133400179712968D939C931397E0E0F2E084A1B2
S113341095A114968D939C931597E0E0F6E080E5D2
S1133420828380EA818384818062848384818F772C
S113343084830895E0E0F2E023A120FFFDCFE0E0E3
S1133440F2E024A135A1FC0126833783E0E0F6E015
S113345080EA828380E5818384818061848384819E
S11334608F7B84830895CF93DF93EC01B0DF8130A9
S1133470910569F01CF4892B39F01AC0823091054A
S113348069F0039771F014C0CE01B1DF12C0E0E01F
S1133490F2E087E281A382E880A30BC0CE01CADFF9
S11334A008C0E0E0F2E08FE281A382E880A301C0DB
S11334B00000DF91CF910895FC01828193810895EA
S11334C0FC018481958108950F931F93CF93DF931B
S11334D0EC018A0102960E94C90DB801CE010E9634
S11334E00E94C90DDF91CF911F910F910895CF9242
S11334F0EF920F93FC0160837183DB0115961C929C
S1133500A081B1811696EC92A081B1811796CC92DC
S1133510413049F4A081B18115968C911597806250
S113352015968C930AC0423041F4A081B18115965E
S11335308C911597806315968C93213049F4A08162
S1133540B18115968C911597816015968C9320C046
S1133550223049F4A081B18115968C91159782602F
S113356015968C9315C0233049F4A081B18115962A
S11335708C911597836015968C930AC0243041F47E
S1133580A081B18115968C911597876015968C93BF
S1133590002341F0A081B18115968C911597886024
S11335A015968C93A081B1818FE313968C9301902F
S11335B0F081E02D88E184830F91EF90CF900895FE
S11335C0CF93DF93EC01E881F981818185FF02C00B
S11335D0608304C0CE010E960E94DE0DE881F9815D
S11335E0838183608383DF91CF91089502960C9445
S11335F0DE0D089502960C94070E089502960C941D
S11336003A0E08950E960C943A0E08950E960C9464
S1133610070E0895FC01808191810895AF92BF92B5
S1133620CF92DF92EF92FF920F931F93CF93DF938A
S113363000D0CDB7DEB75C017B016A012B83198210
S11336401A8289819A8184179507B4F5E981FA81F0
S1133650E60FF71F8081882379F18501025F1F4FF0
S113366007C0E981FA81EE0DFF1D8081882321F1D5
S1133670E981FA81EE0DFF1D8081843239F0E98100
S1133680FA81EE0DFF1D80818A32C1F4C8010E94C7
S11336902F0E8111FBCFE981FA81EE0DFF1D6081B0
S11336A0C5018EDF89819A81019689839A83298154
S11336B03A812C153D05ACF28B8109C0E981FA8170
S11336C09B81EE0DFF1D808189278B83DFCF23969D
S11336D0CDBFDEBFDF91CF911F910F91FF90EF908F
S11336E0DF90CF90BF90AF90089504D06894B1114B
S11336F08DC0089570D088F09F5790F0B92F992706
S1133700B751A0F0D1F0660F771F881F991F1AF0E8
S1133710BA95C9F712C0B13081F077D0B1E00895FD
S113372074C0672F782F8827B85F39F0B93FCCF37E
S1133730869577956795B395D9F73EF490958095DE
S1133740709561957F4F8F4F9F4F0895E89409C0FE
S113375097FB3EF490958095709561957F4F8F4FC0
S11337609F4F9923A9F0F92F96E9BB279395F695D6
S1133770879577956795B795F111F8CFFAF4BB0F54
S113378011F460FF1BC06F5F7F4F8F4F9F4F16C0B8
S1133790882311F096E911C0772321F09EE8872F42
S11337A0762F05C0662371F096E8862F70E060E0FE
S11337B02AF09A95660F771F881FDAF7880F969577
S11337C0879597F9089557FD9058440F551F59F060
S11337D05F3F71F04795880F97FB991F61F09F3FFA
S11337E079F087950895121613061406551FF2CF23
S11337F04695F1DF08C0161617061806991FF1CF73
S113380086957105610508940895E894BB27662799
S11338107727CB0197F9089503D008F48FEF089523
S1133820990F0008550FAA0BE0E8FEEF16161706CD
S1133830E807F907C0F012161306E407F50798F035
S1133840621B730B840B950B39F40A2661F0232B4E
S1133850242B252B21F408950A2609F4A140A695CA
S11338608FEF811D811D0895EE0FFF1F0590F491C8
S1133870E02D1994A29FB001B39FC001A39F700DC6
S1133880811D1124911DB29F700D811D1124911D64
S113389008950790F691E02D1994CF93DF93823029
S11338A0910510F482E090E0E0912921F0912A2121
S11338B020E030E0A0E0B0E0309739F14081518160
S11338C048175907B8F04817590771F48281938152
S11338D0109729F012968D939C9313972CC0809384
S11338E0292190932A2127C02115310531F042174F
S11338F0530718F0A901DB0101C0EF019A01BD01D2
S1133900DF010280F381E02DD7CF21153105F9F0D5
S1133910281B390B2430310580F48A819B81611581
S1133920710521F0FB018283938304C080932921D4
S113393090932A21FE01329644C0FE01E20FF31F48
S11339408193919322503109288339833AC020917D
S1133950272130912821232B41F4209102203091FA
S11339600320209327213093282120910020309197
S113397001202115310541F42DB73EB740910420B3
S113398050910520241B350BE0912721F09128212B
S1133990E217F307A0F42E1B3F0B2817390778F022
S11339A0AC014E5F5F4F2417350748F04E0F5F1F81
S11339B040932721509328218193919302C0E0E002
S11339C0F0E0CF01DF91CF910895CF93DF9300977B
S11339D009F487C0FC01329712821382C091292115
S11339E0D0912A21209781F420813181280F391F19
S11339F080912721909128218217930779F5E093EC
S1133A002721F09328216DC0DE0120E030E0AE17BD
S1133A10BF0750F412964D915C9113979D01411587
S1133A20510509F1DA01F3CFA283B38340815181B7
S1133A30840F951F8A179B0771F48D919C911197A0
S1133A40840F951F02968083918312968D919C9189
S1133A501397828393832115310529F4E093292157
S1133A60F0932A213EC0D9011296ED93FC9313974B
S1133A704D915D91A40FB51FEA17FB0779F480817E
S1133A809181840F951F0296D9018D939C93119770
S1133A908281938112968D939C931397E0E0F0E0DA
S1133AA08A819B81009719F0FE01EC01F9CFCE01C8
S1133AB0029628813981820F931F2091272130910A
S1133AC028212817390769F4309729F410922921FD
S1133AD010922A2102C012821382C0932721D0930C
S1133AE02821DF91CF910895BB274A3031F49923DF
S1133AF022F4BDE2909581959F4F01C0BB27FB0145
S1133B005527AA27880F991FAA1FA41710F0A41BD2
S1133B1083955051B9F7A05DAA3308F0A95DA1932C
S1133B20009779F7B111B1931192CB0126C20F938B
S1133B301F93CF93DF93CDB7DEB72E97CDBFDEBFF4
S1133B400E891F8986E08C8309831A838FEF9FE790
S1133B508D839E83AE01465E5F4F688D798DCE0165
S1133B6001960DD0EF81F885E00FF11F10822E969B
S1133B70CDBFDEBFDF91CF911F910F9108952F929A
S1133B803F924F925F926F927F928F929F92AF92E9
S1133B90BF92CF92DF92EF92FF920F931F93CF9336
S1133BA0DF93CDB7DEB72C97CDBFDEBF7C016B01B1
S1133BB08A01FC0116821782838181FFB0C1CE0184
S1133BC001964C01F7019381F60193FD859193FFD2
S1133BD081916F01882309F49EC1853239F493FDE4
S1133BE0859193FF81916F01853221F4B70190E0B3
S1133BF0D4D1E8CF512C312C20E02032A0F48B32E8
S1133C0069F030F4803259F0833269F420612CC0B9
S1133C108D3239F0803339F4216026C0226024606B
S1133C2023C0286021C027FD27C030ED380F3A306B
S1133C3078F426FF06C0FAE05F9E300D1124532E5F
S1133C4013C08AE0389E300D1124332E20620CC03C
S1133C508E3221F426FD5FC1206406C08C3611F437
S1133C60206802C0883641F4F60193FD859193FFE4
S1133C7081916F018111C1CF982F9F7D955493300D
S1133C8028F40C5F1F4FFFE3F9830DC0833631F036
S1133C90833771F0833509F057C021C0F801808162
S1133CA089830E5F1F4F44244394512C540114C044
S1133CB03801F2E06F0E711CF801A080B18026FF7C
S1133CC003C0652D70E002C06FEF7FEFC5012C8744
S1133CD049D12C0183012C852F77222E16C038015F
S1133CE0F2E06F0E711CF801A080B18026FF03C0C2
S1133CF0652D70E002C06FEF7FEFC5012C8727D1DF
S1133D002C012C852068222E830123FC19C0832DCD
S1133D1090E048165906A0F4B70180E290E03DD146
S1133D203A94F5CFF50127FC859127FE81915F0137
S1133D30B70190E032D131103A94F1E04F1A5108B2
S1133D404114510479F7DEC0843611F0893631F517
S1133D50F80127FF07C060817181828193810C5F24
S1133D601F4F08C060817181882777FD8095982F47
S1133D700E5F1F4F2F76B22E97FF09C09095809546
S1133D80709561957F4F8F4F9F4F2068B22E2AE028
S1133D9030E0A40134D1A82EA81843C0853729F4F3
S1133DA02F7EB22E2AE030E025C0F22FF97FBF2EFD
S1133DB08F36C1F018F4883579F0ADC0803719F02A
S1133DC0883721F0A8C02F2F2061B22EB4FE0DC079
S1133DD08B2D8460B82E09C024FF0AC09F2F9660E3
S1133DE0B92E06C028E030E005C020E130E002C072
S1133DF020E132E0F801B7FE07C060817181828161
S1133E0093810C5F1F4F06C06081718180E090E058
S1133E100E5F1F4FA401F3D0A82EA818FB2DFF7727
S1133E20BF2EB6FE0BC02B2D2E7FA51450F4B4FE6E
S1133E300AC0B2FC08C02B2D2E7E05C07A2C2B2D77
S1133E4003C07A2C01C0752C24FF0DC0FE01EA0DBD
S1133E50F11D8081803311F4297E09C022FF06C040
S1133E607394739404C0822F867809F0739423FDAD
S1133E7012C020FF06C05A2C731418F4530C5718A0
S1133E80732C731460F4B70180E290E02C8785D022
S1133E9073942C85F6CF731410F4371801C0312CA9
S1133EA024FF11C0B70180E390E02C8776D02C85E5
S1133EB022FF16C021FF03C088E590E002C088E716
S1133EC090E0B7010CC0822F867851F021FD02C02A
S1133ED080E201C08BE227FD8DE2B70190E05DD066
S1133EE0A51430F4B70180E390E057D05A94F8CF8A
S1133EF0AA94F401EA0DF11D8081B70190E04DD040
S1133F00A110F6CF332009F45DCEB70180E290E032
S1133F1044D03A94F7CFF7018681978102C08FEF9E
S1133F209FEF2C96CDBFDEBFDF91CF911F910F91F4
S1133F30FF90EF90DF90CF90BF90AF909F908F90C5
S1133F407F906F905F904F903F902F900895FC0169
S1133F500590615070400110D8F7809590958E0FB0
S1133F609F1F0895FC016150704001900110D8F723
S1133F70809590958E0F9F1F0895DC01FC01672F9B
S1133F8071917723E1F7329704C07C916D9370832C
S1133F906291AE17BF07C8F308950F931F93CF9391
S1133FA0DF93182F092FEB018B8181FD03C08FEF65
S1133FB09FEF20C082FF10C04E815F812C813D8124
S1133FC0421753077CF4E881F9819F012F5F3F4F2B
S1133FD028833983108306C0E885F985812F1995D4
S1133FE0892B29F72E813F812F5F3F4F2E833F83FB
S1133FF0812F902FDF91CF911F910F910895FA0196
S1134000AA27283051F1203181F1E8946F936E7F13
S11340106E5F7F4F8F4F9F4FAF4FB1E03ED0B4E004
S11340203CD0670F781F891F9A1FA11D680F791F45
S11340308A1F911DA11D6A0F711D811D911DA11D56
S113404020D009F468943F912AE0269F1124301966
S1134050305D3193DEF6CF010895462F4770405D01
S11340604193B3E00FD0C9F7F6CF462F4F70405DB0
S11340704A3318F0495D31FD4052419302D0A9F70B
S1134080EACFB4E0A6959795879577956795BA9505
S1134090C9F700976105710508959B01AC010A2ECB
S11340A006945795479537952795BA95C9F7620FA2
S11140B0731F841F951FA01D0895F894FFCF61
S11340BE00002B212000020402020402020202026A
S11340CE020402000206080A0E10121416181A1E12
S11340DE000A0B16172223292F353B0A010B010B5D
S11340EE010606060600000000D703D803F6040DE9
S11340FE05A70423055A0578059706436F6E6E656A
S113410E637465640A0024505352463130332C00D4
S113411E2C30302C0025303264002C30312A00240F
S113412E505352463130352C312A33450D0A004C4A
S113413E61743A20000100B903FF835700FAB304F7
S113414E00000606B60125B00168CC0105B10600D3
S113415E151C1C83AAC0065050013C1E08B407024D
S113416E40002A2A0D783A01553601C03501004423
S113417E0200021100009629000032000000008C9B
S113418E13D803F6040D05A7042305DA137805974F
S113419E064D50480052504D004C61743A004C6F1D
S11341AE6E3A00456E670A4C6F61640050646C0A87
S11341BE506F7300313030003030303000303031D9
S10D41CE39354445383035374100D7
S9030000FC
