:10000000B2C30000E1C30000DFC30000DDC3000095
:10001000DBC30000D9C30000D7C30000D5C3000074
:10002000D3C30000D1C30000CFC30000CDC3000084
:10003000CBC30000C9C30000C7C30000C5C3000094
:100040000C94D631C1C30000BFC30000BDC3000083
:10005000BBC30000B9C30000B7C30000B5C30000B4
:10006000B3C30000B1C30000AFC30000ADC30000C4
:10007000ABC30000A9C30000A7C30000A5C30000D4
:10008000A3C30000A1C300009FC300009DC30000E4
:100090009BC3000099C3000097C3000095C30000F4
:1000A00093C3000091C300008FC300008DC3000004
:1000B0008BC3000089C3000087C3000085C3000014
:1000C00083C3000081C300007FC300007DC3000024
:1000D0007BC3000079C3000077C3000075C3000034
:1000E00073C300000C94CC316FC300006DC30000DB
:1000F0006BC3000069C3000067C3000065C3000054
:1001000063C3000061C300005FC300005DC3000063
:100110005BC3000059C3000057C3000055C3000073
:1001200053C3000051C300004FC300004DC3000083
:100130004BC3000049C3000047C3000045C3000093
:1001400043C3000041C300003FC300003DC30000A3
:100150003BC3000039C3000037C3000035C30000B3
:100160000C94FD300C9469310C9455310C94293168
:100170000C9495310C945F3127C3000025C3000017
:1001800023C3000021C300001FC300001DC30000E3
:100190001BC3000019C3000017C3000015C30000F3
:1001A00013C3000011C300000FC300000DC3000003
:1001B0000BC3000009C3000007C3000005C3000013
:1001C00003C3000001C30000FFC20000FDC2000025
:1001D000FBC20000F9C20000F7C20000F5C2000037
:1001E000F3C20000F1C20000EFC20000EDC2000047
:1001F000EBC20000E9C20000E7C20000670946093F
:100200008809A809C909EA090B0A2C0A4D0A6E0ACD
:100210008F0AAF0AD00A2E084A086A0872087E08B8
:1002200092083A08A108B608CA08E208FA081209B2
:100230002A09F10A110B320B530B740B6927712732
:10024000752779277D276D2781270A381738963833
:100250009D38A739A739A739A739A739A73945390B
:100260004B3961397739933900000000003E5B4F0C
:100270005B3E3E6B4F6B3E1C3E7C3E1C183C7E3C06
:10028000181C577D571C1C5E7F5E1C00183C180014
:10029000FFE7C3E7FF0018241800FFE7DBE7FF30A4
:1002A000483A060E2629792926407F050507407F12
:1002B00005253F5A3CE73C5A7F3E1C1C08081C1C85
:1002C0003E7F14227F22145F5F005F5F06097F017B
:1002D0007F006689956A606060606094A2FFA29466
:1002E00008047E040810207E201008082A1C080834
:1002F0001C2A08081E101010100C1E0C1E0C303882
:100300003E3830060E3E0E06000000000000005F82
:1003100000000007000700147F147F14242A7F2A9E
:100320001223130864623649562050000807030060
:10033000001C2241000041221C002A1C7F1C2A08AC
:10034000083E08080080703000080808080800000F
:1003500060600020100804023E5149453E00427F83
:10036000400072494949462141494D331814127FD2
:100370001027454545393C4A494931412111090772
:100380003649494936464949291E000014000000F3
:1003900040340000000814224114141414140041C5
:1003A00022140802015909063E415D594E7C121182
:1003B000127C7F494949363E414141227F414141BA
:1003C0003E7F494949417F090909013E4141517335
:1003D0007F0808087F00417F41002040413F017FA6
:1003E000081422417F404040407F021C027F7F046E
:1003F00008107F3E4141413E7F090909063E4151B7
:10040000215E7F09192946264949493203017F01A6
:10041000033F4040403F1F2040201F3F4038403FA7
:10042000631408146303047804036159494D4300BD
:100430007F4141410204081020004141417F0402F4
:10044000010204404040404000030708002054548B
:1004500078407F2844443838444444283844442869
:100460007F385454541800087E090218A4A49C78BC
:100470007F0804047800447D40002040403D007F18
:100480001028440000417F40007C047804787C08F8
:100490000404783844444438FC18242418182424CC
:1004A00018FC7C08040408485454542404043F44B1
:1004B000243C4040207C1C2040201C3C4030403CE0
:1004C00044281028444C9090907C4464544C440040
:1004D00008364100000077000000413608000201A4
:1004E0000204023C2623263C1EA1A161123A404090
:1004F000207A38545455592155557941225454780D
:1005000042215554784020545579400C1E527212A5
:10051000395555555939545454593955545458002E
:1005200000457C410002457D420001457C407D1232
:1005300011127DF0282528F07C5455450020545494
:100540007C547C0A097F4932494949323A4444443F
:100550003A324A4848303A4141217A3A424020787A
:10056000009DA0A07D3D4242423D3D4040403D3C7B
:1005700024FF2424487E4943662B2FFC2F2BFF09A0
:1005800029F620C0887E0903205454794100004494
:100590007D413048484A32384040227A007A0A0A7F
:1005A000727D0D19317D2629292F282629292926F2
:1005B00030484D4020380808080808080808382F37
:1005C00010C8ACBA2F102834FA00007B00000814C1
:1005D0002A142222142A1408AA005500AAAA55AAED
:1005E00055AA000000FF00101010FF00141414FFA3
:1005F000001010FF00FF1010F010F0141414FC0095
:100600001414F700FF0000FF00FF1414F404FC149E
:100610001417101F10101F101F1414141F00101097
:1006200010F0000000001F101010101F101010100C
:10063000F010000000FF101010101010101010FF2C
:1006400010000000FF140000FF00FF00001F101743
:100650000000FC04F414141710171414F404F4002C
:1006600000FF00F714141414141414F700F71414F2
:1006700014171410101F101F141414F4141010F079
:1006800010F000001F101F0000001F14000000FCED
:10069000140000F010F01010FF10FF141414FF14D9
:1006A0001010101F00000000F010FFFFFFFFFFF010
:1006B000F0F0F0F0FFFFFF0000000000FFFF0F0F61
:1006C0000F0F0F3844443844FC4A4A4A347E020231
:1006D0000606027E027E0263554941633844443C6B
:1006E00004407E201E2006027E020299A5E7A599FD
:1006F0001C2A492A1C4C7201724C304A4D4D303034
:1007000048784830BC625A463D3E494949007E011E
:1007100001017E2A2A2A2A2A44445F444440514A3D
:10072000444040444A51400000FF0103E080FF0084
:100730000008086B6B083612362436060F090F06C0
:10074000000018180000001010003040FF010100E8
:100750001F01011E00191D1712003C3C3C3C00000B
:1007600000000000ED3911241FBECFEFCDBFDFE345
:10077000DEBF00E00CBF11E2A0E0B0E2EEECF1E879
:1007800000E00BBF02C007900D92AA35B107D9F760
:1007900021E2AAE5B1E201C01D92A637B207E1F756
:1007A00017E0C6E6D7E000E006C022970109FE0187
:1007B0000BBF0E94D13CC436D10780E00807A9F7DF
:1007C0000E9401330C94E5400C94C13108952F929E
:1007D0003F924F925F926F927F928F929F92AF92D1
:1007E000BF92CF92DF92EF92FF920F931F93CF931E
:1007F000DF9300D01F92CDB7DEB75C016B837C83A3
:100800006A0149011801B801641B750B882777FD3F
:100810008095982F0E94043C2B013C01E89477F8C6
:10082000B4012B813C81621B730B882777FD809577
:10083000982F0E94043C9B01AC015F7711E000E01F
:10084000C301B2010E94683C18160CF010E0612E42
:10085000702E6114710459F0982D892D4101292EB3
:10086000382E9B818C81CB82DC82C92ED82E8B8145
:100870009C81881699065CF49C2D8D2D6101292E92
:10088000382E9B818C818B829C82892E982ED4015C
:10089000EB81FC81AE1BBF0BA983BA83B1016C193C
:1008A0007D09882777FD8095982F0E94043C9F77CB
:1008B0000E94D13B2B0109811A81112314F40F5F8F
:1008C0001F4F15950795C214D30424F422242394B2
:1008D000312C03C022242A94322C2B813C81821695
:1008E000930674F16114710469F0D501ED91FC91E6
:1008F0000190F081E02D97014B815C81B601C5012B
:1009000019950CC0D501ED91FC910190F081E02D7D
:100910009701A6016B817C81C50119950419150900
:1009200032F4C20CD31CE981FA810E0F1F1F2B81F8
:100930003C812F5F3F4F2B833C838216930694F6B6
:100940002496CDBFDEBFDF91CF911F910F91FF9015
:10095000EF90DF90CF90BF90AF909F908F907F905F
:100960006F905F904F903F902F9008956F927F927D
:100970008F929F92AF92BF92CF92DF92EF92FF92AF
:100980000F931F93CF93DF93EC015B016A01390151
:100990004801E881F9810680F781E02D87011995EA
:1009A000E881F981A601480D591D41505109068081
:1009B000F781E02D9301B501CE011995E881F98108
:1009C0000480F581E02D9401A601B501CE011995B1
:1009D000E881F981A60CB71CB5016150710904804A
:1009E000F581E02D9401A601CE011995DF91CF91FB
:1009F0001F910F91FF90EF90DF90CF90BF90AF903D
:100A00009F908F907F906F900895EF92FF920F9339
:100A10001F93DC01ED91FC91240F351F215031090A
:100A20000280F381E02D780189019B0119951F91C6
:100A30000F91FF90EF900895EF92FF920F931F9305
:100A4000DC01ED91FC91260F371F21503109028006
:100A5000F381E02D78018A0119951F910F91FF9084
:100A6000EF9008956F927F928F929F92AF92BF9274
:100A7000CF92DF92EF92FF920F931F93CF93DF936A
:100A80006C01EB014A0158013B01620E731E6615B1
:100A9000770584F4D601ED91FC910480F581E02D79
:100AA00087019501A401BE01C60119952196C615BD
:100AB000D70584F3DF91CF911F910F91FF90EF90B5
:100AC000DF90CF90BF90AF909F908F907F906F906E
:100AD0000895EF92FF920F931F93DC01ED91FC912B
:100AE000119718960D911C91199716962D913C917E
:100AF00017970284F385E02D7B0140E050E060E031
:100B000070E019951F910F91FF90EF90089508954F
:100B1000FC0189E390E28083918362837383448341
:100B200055836683778340875187158A128613869B
:100B30001486158621E0248B8FEF9FEF828B938B99
:100B4000808B918B268B08952F923F924F925F92CC
:100B50006F927F928F929F92AF92BF92CF92DF92CD
:100B6000EF92FF920F931F93CF93DF93CDB7DEB732
:100B70006097CDBFDEBF4C0109831A83EC82FD82F2
:100B8000CB82DC0116968D919C9117976817790797
:100B90000CF0C6C018968D919C911997481759076B
:100BA0000CF0BEC06C2C712CC301880F991F860DF0
:100BB000971D880F991F860F971F019799230CF493
:100BC000AFC0C301880F991F880F991F880F991F05
:100BD000840F951F019799230CF4A2C030E0C9013E
:100BE000880F991F880F991F280F391F13016E83D3
:100BF0007F83688779871A8628593D4FF901E61B5C
:100C0000F70BED87FE874B875C87FA85F53009F493
:100C100077C0ED85FE852E813F81E20FF31F0491A1
:100C200070C090FE25C03B81313081F4AF85B8891A
:100C3000ED91FC9111970190F081E02D29813A818D
:100C4000A5016E817F81CD0119953DC0AF85B88921
:100C5000ED91FC9111970284F385E02DE980FA80F3
:100C600083019301A601682D742DCD0119952BC028
:100C7000EC81FD8129813A81E217F30721F13B8163
:100C8000313081F4AF85B889ED91FC9111970190D5
:100C9000F081E02D2C813D81A5016E817F81CD0108
:100CA000199511C0AF85B889ED91FC911197028417
:100CB000F385E02DEC80FD8083019301A601682D72
:100CC000742DCD01199596945A94C20CD31CBFEF84
:100CD000AB1ABB0A5110A5CF8F849888EA85EF5FC5
:100CE000EA8728853985220D331D288739878E812B
:100CF0009F8101968E839F83E63009F086CF10C0D6
:100D000000E018854984CB84DC84AC2CBD2C68942D
:100D1000552453F8C401902E812E8F87988B81CF54
:100D20006096CDBFDEBFDF91CF911F910F91FF90F5
:100D3000EF90DF90CF90BF90AF909F908F907F907B
:100D40006F905F904F903F902F900895CF92EF92C9
:100D5000FF920F931F93CF93DF93EC016A3079F4E6
:100D60002C898C859D8538E0239F800D911D112451
:100D70008C879D878E859F858A879B873CC06D3039
:100D8000D1F1EA88FB88088919894C855D858A85B7
:100D90009B85CC88262FBC01CE01D6DE2C8930E085
:100DA000C901880F991F820F931F880F991F4A85C9
:100DB0005B85840F951F8A879B874E894423D9F0D2
:100DC0004AEF4203B001439F700D11244E815F81B1
:100DD000460F571F4817590774F4220F331F220F6D
:100DE000331F220F331F8C859D85280F391F2C87B9
:100DF0003D871A861B86DF91CF911F910F91FF903F
:100E0000EF90CF900895FC016287738744875587E0
:100E1000668777870895611101C061E0FC01648BEA
:100E20000895FC01608B718B428B538B0895FC01FC
:100E3000668B0895FC016370658B613079F028F052
:100E4000623019F0633091F409C082819381868306
:100E50009783848195818087918708958481958186
:100E60008683978382819381808791870895CF922B
:100E7000EF920F93CF93DF93EC0140E850E060E8EE
:100E800070E00E94C03A8DE0E6E0F0E2DE01989664
:100E900001900D928A95E1F78DE0E3E1F0E2DE0149
:100EA000D59601900D928A95E1F7FE01EE5BFF4F1A
:100EB0001082319681E08083319682E08083319682
:100EC00086E080830F2EF0EFCF2EF02D0F2EF1E273
:100ED000EF2EF02D00E023E040E060EA79E0CE0163
:100EE0000E94D33AFE01E659FF4F10821EA21FA2B4
:100EF0003196108235978FEF8083B09720E030E0F5
:100F000080E381932F5F3F4F24323105D1F7E0E436
:100F1000F8E0108280E1818388EE93E080A791A7BA
:100F2000178287E08083DF91CF910F91EF90CF9070
:100F300008951F93CF93DF93EC010E94663BFC0161
:100F40001081612FCE010E94523B1E3329F4C659F5
:100F5000DF4F88818F5F8883812FDF91CF911F9131
:100F600008950F931F93CF93DF93EC010E945E3B94
:100F700081110AC0CE010E94663B8C01CE010E9405
:100F8000623BF801808307C0CE010E94663BFC01F2
:100F900023812C7F2383DF91CF911F910F9108959F
:100FA000FF920F931F93CF93DF93EC018B01CE0140
:100FB0000E945A3B811110C0CE010E94563BF82E70
:100FC000D801ED91FC910088F189E02D682FC801CE
:100FD0001995BAE0FB1611F00000E9CFDF91CF912F
:100FE0001F910F91FF900895FF920F931F93CF933E
:100FF000DF938B01EC01CE010E945A3B8111FBCFA4
:10100000CE010E94563BF82ED801ED91FC9100884C
:10101000F189E02D682FC8011995BEE3FB12EBCFD3
:10102000DF91CF911F910F91FF900895CF92DF92A2
:10103000EF92FF920F931F93CF93DF93EC01FC018C
:10104000E959FF4F6083462F50E04032510508F0C8
:101050006BC3FA01E250FF4F0C94B23C64E20E9471
:101060003C3B64E2CE010E943C3B64E2CE010E9424
:101070003C3B5AC36DE20E943C3B6DE2CE010E94B4
:101080003C3B6DE2CE010E943C3B6AE0CE010E94F7
:101090003C3B4AC3C82EDD2E63E40E943C3B6CE21D
:1010A000CE010E943C3B7E018AE1E80EF11C00E08B
:1010B00010E0F70161917F018C2D9D2D0E943C3B3A
:1010C0000F5F1F4F0C301105A1F76AE0CE010E949F
:1010D0003C3B2AC369E40E943C3B6AE0CE010E948B
:1010E0003C3B22C367E40E943C3B6BE4CE010E9480
:1010F0003C3B6AE0CE010E943C3B16C363E50E9484
:101100003C3B66E4CE010E943C3B6CE2CE010E9477
:101110003C3B61E3CE010E943C3B6AE0CE010E9471
:101120003C3B02C362E50E943C3B6CE2CE010E9464
:101130003C3B61E3CE010E943C3B6AE0CE010E9451
:101140003C3B61E4CE010E943C3B64E5CE010E9441
:101150003C3B69E4CE010E943C3B6DE0CE010E9425
:101160003C3B6AE0CE010E943C3BDEC261E40E944F
:101170003C3B64E5CE010E943C3B6AE5CE010E9407
:101180003C3B6DE0CE010E943C3B6AE0CE010E94F8
:101190003C3BCAC261E40E943C3B64E5CE010E9434
:1011A0003C3B65E4CE010E943C3B60E3CE010E94E3
:1011B0003C3B6DE0CE010E943C3B6AE0CE010E94C8
:1011C0003C3BB2C261E40E943C3B64E5CE010E941C
:1011D0003C3B6CE4CE010E943C3B61E3CE010E94AB
:1011E0003C3B6DE0CE010E943C3B6AE0CE010E9498
:1011F0003C3B9AC261E40E943C3B64E5CE010E9404
:101200003C3B68E4CE010E943C3B60E3CE010E947F
:101210003C3B6DE0CE010E943C3B6AE0CE010E9467
:101220003C3B82C261E40E943C3B64E5CE010E94EB
:101230003C3B63E5CE010E943C3B61E3CE010E9452
:101240003C3B6DE0CE010E943C3B6AE0CE010E9437
:101250003C3B6AC261E40E943C3B64E5CE010E94D3
:101260003C3B63E5CE010E943C3B60E5CE010E9421
:101270003C3B60E3CE010E943C3B6DE0CE010E940E
:101280003C3B6AE0CE010E943C3B4EC260E30E94C0
:101290003C3B61E3CE010E943C3B60E3CE010E94F7
:1012A0003C3B63E4CE010E943C3B6DE0CE010E94DA
:1012B0003C3B6AE0CE010E943C3BFE01E859FF4FF7
:1012C00080E38083C759DF4F83E488832DC260E3C6
:1012D0000E943C3B61E3CE010E943C3B60E3CE01B7
:1012E0000E943C3B64E4CE010E943C3B6DE0CE0199
:1012F0000E943C3B6AE0CE010E943C3BFE01E85963
:10130000FF4F80E38083C759DF4F84E488830CC29A
:1013100060E30E943C3B61E3CE010E943C3B61E301
:10132000CE010E943C3B61E3CE010E943C3B6DE05C
:10133000CE010E943C3B6AE0CE010E943C3BFE0194
:10134000E859FF4F81E38083C759DF4F8883ECC1A1
:1013500060E30E943C3B61E3CE010E943C3B65E3BD
:10136000CE010E943C3B63E4CE010E943C3B6DE019
:10137000CE010E943C3B6AE0CE010E943C3BFE0154
:10138000E859FF4F85E38083C759DF4F83E48883A3
:10139000CBC160E30E943C3B61E3CE010E943C3B39
:1013A00065E3CE010E943C3B65E4CE010E943C3BDC
:1013B0006DE0CE010E943C3B6AE0CE010E943C3BC6
:1013C000FE01E859FF4F85E38083C759DF4F85E46D
:1013D0008883AAC160E30E943C3B61E3CE010E9486
:1013E0003C3B66E3CE010E943C3B67E3CE010E949A
:1013F0003C3B6DE0CE010E943C3B6AE0CE010E9486
:101400003C3BFE01E859FF4F86E38083C759DF4F1D
:1014100087E3888389C160E30E943C3B61E3CE019E
:101420000E943C3B60E3CE010E943C3B64E3CE0162
:101430000E943C3B6DE0CE010E943C3B6AE0CE0145
:101440000E943C3BFE01E859FF4F80E38083C7596F
:10145000DF4F84E3888368C160E30E943C3B61E323
:10146000CE010E943C3B62E3CE010E943C3B66E41D
:10147000CE010E943C3B6DE0CE010E943C3B6AE005
:10148000CE010E943C3BFE01E859FF4F82E380837E
:10149000C759DF4F86E4888347C160E30E943C3B25
:1014A00061E3CE010E943C3B68E3CE010E943C3BDD
:1014B00067E3CE010E943C3B6DE0CE010E943C3BC5
:1014C0006AE0CE010E943C3BFE01E859FF4F88E3F1
:1014D0008083C759DF4F87E3888326C160E30E947A
:1014E0003C3B61E3CE010E943C3B64E3CE010E94A1
:1014F0003C3B66E3CE010E943C3B6DE0CE010E9486
:101500003C3B6AE0CE010E943C3BFE01E859FF4FA4
:1015100084E38083C759DF4F86E3888305C160E396
:101520000E943C3B61E3CE010E943C3B63E3CE0161
:101530000E943C3B63E3CE010E943C3B6DE0CE0148
:101540000E943C3B6AE0CE010E943C3BFE01E85910
:10155000FF4F83E38083C759DF4F8883E5C060E393
:101560000E943C3B61E3CE010E943C3B65E3CE011F
:101570000E943C3B69E3CE010E943C3B6DE0CE0102
:101580000E943C3B6AE0CE010E943C3BFE01E859D0
:10159000FF4F85E38083C759DF4F89E38883C4C049
:1015A00060E30E943C3B61E3CE010E943C3B66E36A
:1015B000CE010E943C3B68E3CE010E943C3B6DE0C3
:1015C000CE010E943C3B6AE0CE010E943C3BFE0102
:1015D000E859FF4F86E38083C759DF4F88E388834C
:1015E000A3C060E30E943C3B61E3CE010E943C3B10
:1015F00060E3CE010E943C3B60E3CE010E943C3B95
:101600006DE0CE010E943C3B6AE0CE010E943C3B73
:10161000FE01E859FF4F80E38083C759DF4F88837D
:1016200083C060E30E943C3B61E3CE010E943C3BEF
:1016300062E3CE010E943C3B60E3CE010E943C3B52
:101640006DE0CE010E943C3B6AE0CE010E943C3B33
:10165000FE01E859FF4F82E38083C759DF4F80E3E3
:10166000888362C060E30E943C3B61E3CE010E943C
:101670003C3B64E3CE010E943C3B60E3CE010E9410
:101680003C3B6DE0CE010E943C3B6AE0CE010E94F3
:101690003C3BFE01E859FF4F84E38083C759DF4F8D
:1016A00080E3888341C060E30E943C3B61E3CE015C
:1016B0000E943C3B66E3CE010E943C3B60E3CE01CE
:1016C0000E943C3B6DE0CE010E943C3B6AE0CE01B3
:1016D0000E943C3BFE01E859FF4F86E38083C759D7
:1016E000DF4F80E3888320C060E30E943C3B61E3DE
:1016F000CE010E943C3B68E3CE010E943C3B60E38C
:10170000CE010E943C3B6DE0CE010E943C3B6AE072
:10171000CE010E943C3BFE01E859FF4F88E38083E5
:10172000C759DF4F80E38883DF91CF911F910F91DD
:10173000FF90EF90DF90CF9008955F926F927F922D
:101740008F929F92AF92BF92CF92DF92EF92FF92D1
:101750000F931F93CF93DF936C01EB016DE066DC79
:10176000BE01C6011DDC61E1C60160DCBE01C6012F
:1017700017DC62E1C6015ADC2FEF33E284EF90E020
:101780002150304080409040D9F700C000000C2D1F
:101790001D2D0CC0802F912F0E94563BE881F981AE
:1017A0000088F189E02D682FCE011995A02E912E89
:1017B000802F912F0E945A3B882361F36DE0C60170
:1017C00035DCBE01C601ECDB0F2EF4E65F2EF02DFA
:1017D000612CE881F9810484F585E02D60E070E0FA
:1017E000CE0119957C2E8D2E40E050E060E070E037
:1017F000CE0109DB6EE0C60119DCE52CF62C00E019
:1018000010E02FEF35EA8EE0215030408040E1F7C4
:1018100000C0000013C08A2D992D0E94563BB82E9F
:10182000E881F9810088F189E02D682F872D982DB6
:1018300019959AE0B91202C00F5F1F4F8A2D992D9A
:101840000E945A3B882339F321E0E21AF108E1149F
:10185000F104B9F60130110509F0BBCF6BE470E279
:10186000CE010E94C92C65E1C601E0DBBE01C601C4
:10187000BBDB66E1C601DADBBE01C601B5DB67E1B1
:10188000C601D4DBBE01C601AFDB68E1C601CEDB19
:10189000BE01C601A9DB6AE1C601C8DBBE01C60103
:1018A000A3DBF601E659FF4F108261E0C601BEDB03
:1018B000BE01C60199DB81E0DF91CF911F910F91AD
:1018C000FF90EF90DF90CF90BF90AF909F908F9060
:1018D0007F906F905F900895E62FF72FDC015A9666
:1018E00020E030E061916D932F5F3F4F2C30310548
:1018F000C9F7BA0122CF08953F924F925F926F923B
:101900007F928F929F92AF92BF92CF92DF92EF928F
:10191000FF920F931F93CF93DF938C01FC01E65945
:10192000FF4F8081882309F4B7C0402E512E7801E3
:1019300028E6E20EF11C580139E6A30EB11C48015D
:1019400086E6880E911C6801E7E6CE0ED11CE80100
:10195000C659DF4F842D952D0E94563B842D952D21
:101960000E94563B842D952D0E94563B842D952D2B
:101970000E94563B782E842D952D0E94563B682E52
:10198000842D952D0E94563BF7018081871104C05C
:10199000F5018081861571F0842D952D0E94563BAE
:1019A0008E3309F470C0842D952D0E945A3B8823F4
:1019B00099F369C0F4012081F601408130E0842F61
:1019C000992787FD90952817390709F45CC0F8011D
:1019D000E40FF11D65A8712C80A59301280F311D1E
:1019E0006216730664F5312C842D952D0E94563BAA
:1019F000803221F431E0631A710810C0F801E60D5D
:101A0000F71DEA5BFF4F9081981302C0339406C024
:101A1000F801E60DF71DEA5BFF4F80838FEF681A30
:101A2000780AF6018081F801E80FF11D25A980A54B
:101A300090E0820F911D68167906B4F201C0312C36
:101A4000842D952D0E94563B8E3331F0842D952D9B
:101A50000E945A3B8823A1F3F6018081F801E80F28
:101A6000F11D90A5931579F021E030E002C0220F1E
:101A7000331F8A95E2F7C901F80126A137A1822B0D
:101A8000932B86A397A3F8948881815088837894B8
:101A9000888181115FCF02C080E001C081E0DF91C9
:101AA000CF911F910F91FF90EF90DF90CF90BF905B
:101AB000AF909F908F907F906F905F904F903F90EE
:101AC0000895FC0186A197A10895FC0116A217A212
:101AD00008950F931F93CF93DF93EC018C01055969
:101AE0001F4FF8018081FE01E80FF11D87FDFA9577
:101AF000EE5BFF4F6081CE0199DAF80180818F5F44
:101B0000843011F0808303C0C559DF4F1882DF9104
:101B1000CF911F910F910895FC01E60FF11D25A9AA
:101B2000DC01AA59BF4F6C93DC01A20FB11DAA5B67
:101B3000BF4F6C9141E0420FDC01A40FB11DAA5BC5
:101B4000BF4F7C9140A5443079F432E0320FFC0164
:101B5000E30FF11DEA5BFF4F30812D5FFC01E20FC7
:101B6000F11DEA5BFF4F5081FC01EA59FF4F2FEF57
:101B70002083832F952F0895CF93DF93EC01CB0122
:101B8000688379830E94D53C8A839B83DF91CF91C0
:101B90000895FC0182819381FC01E60FF71F80818B
:101BA0000895FC0182819381FC01E60FF71F4083B9
:101BB00008950F931F93CF93DF93EC018B01089649
:101BC000DBDF088319831C821D821E821F821A821A
:101BD0001B82DF91CF911F910F910895CF93DF93D7
:101BE000EC012A813B818881998128173907E1F02E
:101BF0008C819D81462FBC01CE010896D2DF8C815D
:101C00009D8101968C839D8328813981821793075A
:101C100034F08C819D81821B930B8C839D838A8100
:101C20009B8101968A839B83DF91CF910895CF9307
:101C3000DF93EC018A819B81892BE9F06E817F81A2
:101C4000CE010896A6DF2E813F812F5F3F4F2E8366
:101C50003F83488159812417350734F02E813F8115
:101C6000241B350B2E833F832A813B812150310970
:101C70002A833B8301C080E0DF91CF910895FC016E
:101C80004281538181E0208131814217530709F05D
:101C900080E00895FC012281338181E0232B09F04B
:101CA00080E00895CF93DF931F921F92CDB7DEB7E8
:101CB000FC01DB0149835A8389819A819C0121506F
:101CC000310929833A83892BA1F0AF014F5F5F4F20
:101CD000BD016F5F7F4F8C91808389819A819C01C8
:101CE0002150310929833A83892B19F0DB01FA014C
:101CF000ECCF0F900F90DF91CF910895CF93DF93AA
:101D00001F921F92CDB7DEB7FC0149835A838981A8
:101D10009A819C012150310929833A83892B79F0DA
:101D2000AF014F5F5F4F608389819A819C01215091
:101D3000310929833A83892B11F0FA01F1CF0F90F1
:101D40000F90DF91CF910895CF93DF9300D01F9232
:101D5000CDB7DEB7FB01238D428D50E0522B60E002
:101D600070E049835A836B837C83DC018C918330E0
:101D7000A9F42589848949815A816B817C8190E00D
:101D8000922BA0E0B0E0DC0199278827842B952BCB
:101D9000A62BB72B89839A83AB83BC8369817A8115
:101DA0008B819C812496CDBFDEBFDF91CF910895BA
:101DB000CF93DF9300D01F92CDB7DEB7FC014983EC
:101DC0005A836B837C8349815A816B817C81428FEA
:101DD00049815A816B817C81452F5527438F4981E9
:101DE0005A816B817C81AB0166277727448B4981BF
:101DF0005A816B817C81872F9927858B2496CDBF53
:101E0000DEBFDF91CF910895CF93DF931F921F9292
:101E1000CDB7DEB7AC01FC01A081B181109751F1C3
:101E20008C91813258F08A33A1F1FD0131969F01E6
:101E30009191913228F09A33D1F704C0982F9D01E7
:101E40009A33D9F490E0C09789839A8389819A81E3
:101E50000A97B0F4CD01019628173907A1F48981BA
:101E60009A81892B99F489819A811296FA01A0832B
:101E7000B18311C08FEF9FEF0EC080E090E00BC0E8
:101E80008FEF9FEF08C08FEF9FEF05C08FEF9FEFA1
:101E900002C09D01D7CF0F900F90DF91CF91089591
:101EA000CF92DF92EF92FF920F931F93CF93DF9326
:101EB00000D000D0CDB7DEB77C01FC01848188233F
:101EC00009F45DC082A593A5A4A5B5A589839A83CD
:101ED000AB83BC8329813A814B815C816701FEE23F
:101EE000CF0ED11CF701818101E010E0B6010E9404
:101EF000B337811146C0F701148249815A816B8141
:101F00007C81068D178D20A131A186899789A08DAE
:101F1000B18D401B510B620B730B481759076A07B1
:101F20007B0788F5838190E08D839E838D819E81E0
:101F3000029758F1F70186899789A08DB18D498163
:101F40005A816B817C81840F951FA61FB71F8983DF
:101F50009A83AB83BC8329813A814B815C818181E7
:101F600001E010E0B6010E94B3378D819E81019798
:101F70008D839E838D819E810297E0F608C080E06C
:101F800007C081E005C080E003C080E001C080E0C0
:101F90002696CDBFDEBFDF91CF911F910F91FF90AD
:101FA000EF90DF90CF900895EF92FF920F931F93E1
:101FB000CF93DF9300D01F92CDB7DEB77C0149836A
:101FC0005A836B837C83FC0182A593A5A4A5B5A548
:101FD00049815A816B817C8184179507A607B707D1
:101FE000F1F0C7015DDF81111CC029813A814B816D
:101FF0005C81F701818101E010E0B701625D7F4FF4
:102000000E94F63681110FC089819A81AB81BC8113
:10201000F70182A793A7A4A7B5A780E005C080E039
:1020200003C081E001C081E02496CDBFDEBFDF9117
:10203000CF911F910F91FF90EF9008950F931F93F1
:10204000CF93DF9300D01F92CDB7DEB78C014983C9
:102050005A836B837C83FC0114828FEF9FEFDC013A
:1020600082A793A7A4A7B5A749815A816B817C81D8
:10207000C8019ADF81114FC0F801E35DFD4F208157
:102080003197808190E0922B85359A4A09F045C0BE
:10209000F801E959FF4F30813197808131974081B4
:1020A0003197208190E0A0E0B0E0DC0199278827FB
:1020B000B32B822B50E0542F442760E070E0842B38
:1020C000952BA62BB72BBB2786349144A445B1058D
:1020D00031F17F962081319740813197808131970E
:1020E000908150E060E070E0BA0155274427722BE0
:1020F000492B90E0982F8827A0E0B0E0482B592B7F
:102100006A2B7B2B772781E0463451446445710567
:1021100039F480E005C083E003C082E001C080E0C4
:102120002496CDBFDEBFDF91CF911F910F9108950F
:102130000097C9F0DC01ED91FC9111973097A9F05F
:1021400020812223A1F02681378112968D919C91C6
:1021500013972817390769F481810E94D93380FFCA
:102160000AC083E0089589E0089589E0089589E030
:10217000089589E0089580E00895CF92DF92EF926C
:10218000FF920F931F93CF93DF93CDB7DEB7AF9737
:10219000CDBFDEBF6C01CB014FA7F60110821182CB
:1021A00033DE7C0199230CF471C3FC01EE0FFF1F99
:1021B000E45AFE4D008111810115110509F468C32F
:1021C000F60100831183F8018081882381F08181E9
:1021D0000E94D9338A838A8180FD09C08FA5882314
:1021E00009F458C38A8182FD57C380E074C3F801A3
:1021F0001082E18281810E946C368A838A8180FD0F
:102200004DC38FA5882319F08A8182FD49C31B82A3
:102210001C821D821E824B815C816D817E81C80182
:102220000DDF89838981813011F0898186C01DA6E7
:102230001EA68DA59EA5049708F044C0EDA5FEA599
:10224000E295F295F07FFE27E07FFE27E451FE4FF6
:10225000E00FF11F2DA53EA584818823B1F0638591
:1022600082854185508590E0A0E0B0E0DC019927AF
:102270008827B62B852B50E0542F442760E070E070
:10228000842B952BA62BB72B03C080E090E0DC01BC
:10229000F901EE0FFF1FEE0FFF1FCC24C394D12CCA
:1022A000CC0EDD1EEC0DFD1D848F958FA68FB78F94
:1022B0008DA59EA501968DA79EA78DA59EA5049789
:1022C00008F4BCCF1DA61EA68DA59EA5892B29F0BE
:1022D0008DA59EA501978DA79EA7EDA5FEA5EE0F46
:1022E000FF1FEE0FFF1FEE24E394F12CEC0EFD1EFA
:1022F000EE0DFF1D848D958DA68DB78D8B839C83F0
:10230000AD83BE834B815C816D817E81452B462BE5
:10231000472B39F04B815C816D817E81C8018EDE57
:1023200001C082E089838981882339F08DA59EA52B
:1023300001968DA79EA7049780F28981833009F4C6
:10234000B1C289818111B0C2F80122AD81AD90E0A6
:10235000922B8115924009F0A9C2F801EB5BFF4F67
:1023600020813197808190E0922BA0E0B0E08F83B4
:102370009887A987BA878F819885A985BA85892B7F
:102380008A2B8B2BE9F471963081319780813197BC
:1023900040813197208190E0A0E0B0E0DC019927F6
:1023A0008827B32B822B50E0542F442760E070E045
:1023B000842B952BA62BB72B8F839887A987BA8759
:1023C0008F819885A985BA85F801868B978BA08F18
:1023D000B18F86AD83838381813021F08381823008
:1023E00009F066C2F801A3812F81388549855A8595
:1023F000B0E00E94C73C6F83788789879A8783AD56
:1024000082838281882309F455C28281228130E04F
:102410002150310990E082239323892B09F04CC28B
:10242000E05CFF4F2081F80187AD90E0922B808720
:102430009187808591858F709927892B09F03EC2FD
:10244000EE5BFF4F20813197808190E0922BA0E0DE
:10245000B0E08B879C87AD87BE878B859C85AD85DB
:10246000BE85892B8A2B8B2BE9F4709630813197AE
:102470008081319740813197208190E0A0E0B0E0E9
:10248000DC0199278827B32B822B50E0542F442757
:1024900060E070E0842B952BA62BB72B8B879C8755
:1024A000AD87BE87F80125AD84AD90E0922B8B8F70
:1024B0009C8F8B8D9C8D892B09F402C24B8D5C8D7A
:1024C0008F819885A985BA8520853185840F951FD0
:1024D000A11DB11D329522952F7023273F70232710
:1024E000820F931FA11DB11D8F87988BA98BBA8B6B
:1024F0004B855C856D857E858F859889A989BA898C
:10250000481759076A077B0708F4DCC14B855C85CF
:102510006D857E858F859889A989BA8922816A010E
:102520007B01C81AD90AEA0AFB0AC701B60130E0E2
:1025300040E050E00E94903C2B8B3C8B4D8B5E8B9F
:102540008B899C89AD89BE89892B8A2B8B2B09F4B9
:10255000BBC181E089838B899C89AD89BE89863F17
:102560009F40A105B10510F082E089838B899C8989
:10257000AD89BE89863F9F4FA105B10510F083E06C
:1025800089838B899C89AD89BE890296A11DB11D65
:10259000F801828B938BA48BB58B8B819C81AD8151
:1025A000BE81828F938FA48FB58F2B8D3C8D8B81B5
:1025B0009C81AD81BE81820F931FA11DB11D868FAD
:1025C000978FA0A3B1A38B819C81AD81BE814F85E4
:1025D000588969897A89840F951FA61FB71F86A31A
:1025E00097A3A0A7B1A789818330A9F5808591859C
:1025F000892B09F06BC1E35AFF4F308131978081FD
:10260000319740813197208190E0A0E0B0E0DC017B
:1026100099278827B32B822B50E0542F442760E062
:1026200070E0842B952BA62BB72BF80182A393A3E4
:10263000A4A3B5A382899389A489B589880F991F1A
:10264000AA1FBB1F880F991FAA1FBB1F8F8B988FB4
:10265000A98FBA8F42C0F80180859185892B09F432
:1026600037C1868D978DA0A1B1A14F81588569850D
:102670007A85840F951FA61FB71F82A393A3A4A3D7
:10268000B5A38981823049F482899389A489B58967
:10269000880F991FAA1FBB1F1CC0F801228933890C
:1026A00044895589C288D388E488F588A3E0B0E0DE
:1026B0000E94C73CDC01CB01B695A79597958795FD
:1026C000F1E0CF22DD24EE24FF248C0D9D1DAE1DF4
:1026D000BF1D8F8B988FA98FBA8FF80146895789B4
:1026E000608D718D8F89988DA98DBA8D81509E4F87
:1026F000AF4FBF4F072E79E0B695A7959795879571
:102700007A95D1F7702D481759076A077B0708F4A7
:10271000E1C08FEF9FEFDC0186879787A08BB18B9D
:1027200082879387A487B58780E8858389818330F2
:1027300009F09CC0E15AFF4F20813197808190E0E1
:10274000922B019709F092C04B815C816D817E8153
:102750004F5F5F4F6F4F7F4FC80126DC811186C0EE
:10276000F8011582E35DFD4F20813197808190E073
:10277000922B85359A4A09F079C0F80131A980A9D0
:1027800047A526A590E0A0E0B0E0DC0199278827C6
:10279000B32B822B50E0542F442760E070E0842B51
:1027A000952BA62BB72B82359245A146B14409F053
:1027B0005DC0F801EB5EFD4F30813197808131972C
:1027C00040813197208190E0A0E0B0E0DC019927C2
:1027D0008827B32B822B50E0542F442760E070E011
:1027E000842B952BA62BB72B82379247A144B14659
:1027F000E9F5379630813197808131974081319763
:10280000208190E0A0E0B0E0DC0199278827B32B7D
:10281000822B50E0542F442760E070E0842B952BEE
:10282000A62BB72BF80186879787A08BB18BE35E29
:10283000FD4F3081319780813197408131972081E0
:1028400090E0A0E0B0E0DC0199278827B32B822B31
:1028500050E0542F442760E070E0842B952BA62B8A
:10286000B72BF80182879387A487B5878981F80100
:10287000808380915A2190915B21019680935A2107
:1028800090935B218683978380E025C08BE023C0F3
:102890008CE021C080E01FC08AE01DC083E01BC027
:1028A0008AE019C081E017C08DE015C08DE013C02B
:1028B0008DE011C08DE00FC08DE00DC08DE00BC02C
:1028C0008DE009C08DE007C08DE005C08DE003C03C
:1028D0008DE001C08DE0AF96CDBFDEBFDF91CF911F
:1028E0001F910F91FF90EF90DF90CF900895EF929E
:1028F000FF920F931F93CF93DF93EC01D1DA982FC0
:1029000081118CC08881833009F07EC08D81813037
:1029100009F07AC040E052E060E070E07E018EE2B3
:10292000E80EF11CC701EAD985E5FE01E45DFD4F23
:1029300080838AEA3196808382E58EA78FA781E61D
:1029400088AB91E499AB22E77B9720833196208373
:1029500031969083319680838E859F85A889B98929
:10296000319680838E859F85A889B989892F99277B
:10297000319680838E859F85A889B989CD01AA2744
:10298000BB27319680838E859F85A889B9898B2F37
:102990009927AA27BB27319680838A859B85AC859A
:1029A000BD85319680838A859B85AC85BD85892FC1
:1029B0009927319680838A859B85AC85BD85CD011D
:1029C000AA27BB27319680838A859B85AC85BD85E8
:1029D0008B2F9927AA27BB27319680838A8D9B8DC1
:1029E000AC8DBD8D0196A11DB11D8AA79BA7ACA77B
:1029F000BDA72AA53BA54CA55DA5898101E010E0F6
:102A0000B7010E94B3371D82898140E050E060E049
:102A10000E94D53991E0811101C090E0892FDF91AA
:102A2000CF911F910F91FF90EF900895CF92DF9279
:102A3000EF92FF920F931F93CF93DF9300D01F92DB
:102A4000CDB7DEB7FC0149835A836B837C83498110
:102A50005A816B817C814250510961097109498316
:102A60005A836B837C830289138924893589498140
:102A70005A816B817C81025011092109310940176B
:102A800051076207730788F4A28129813A814B813B
:102A90005C81C6A0D7A0E0A4F1A4B0E00E94C73C2E
:102AA0006C0D7D1D8E1D9F1D03C060E070E0CB018D
:102AB0002496CDBFDEBFDF91CF911F910F91FF9084
:102AC000EF90DF90CF900895FF920F931F93CF93D5
:102AD000DF93CDB7DEB72897CDBFDEBF8C014D8326
:102AE0005E836F8378874D815E816F817885423008
:102AF00051056105710508F4F6C0FC01428953894E
:102B0000648975898D819E81AF81B8858417950709
:102B1000A607B70708F0ECC08081823009F469C0CD
:102B2000833009F495C0813009F0E7C08D819E8122
:102B3000AF81B8858B839C838B819C812B813C8169
:102B400096958795820F931F8B839C83468D578D17
:102B500060A171A18B819C81892F99278695480F4F
:102B6000591F611D711DC8011FDA8111CBC0EB8196
:102B7000FC81F170E00FF11F86A590E089839A83B4
:102B80008B819C8101968B839C83F801468D578DA8
:102B900060A171A18B819C81892F99278695480F0F
:102BA000591F611D711DC801FFD98111AFC0EB8193
:102BB000FC81F170E00FF11F26A589819A81922B8B
:102BC00089839A838D819E81AF81B88580FF0BC0F8
:102BD00069817A81729562956F7067277F70672728
:102BE00080E090E09EC069817A817F7080E090E013
:102BF00098C0F801868D978DA0A1B1A14D815E810D
:102C00006F817885452F562F672F7727480F591FDB
:102C10006A1F7B1FC801C8D981117CC08D819E812C
:102C2000AF81B885880F991FAA1FBB1F8E7F917037
:102C3000AA27BB27FC01BE96E00FF11F2181F801F6
:102C4000E80FF91F66A570E0722B80E090E069C084
:102C5000F801868D978DA0A1B1A14D815E816F8114
:102C60007885689416F876956795579547951694E4
:102C7000D1F7480F591F6A1F7B1FC80195D98111D1
:102C80004DC08D819E81AF81B885880F991FAA1F85
:102C9000BB1F880F991FAA1FBB1F8C7F9170AA278B
:102CA000BB27FC01BE96E00FF11F4381F28031810A
:102CB000F801E80FF91F26A550E060E070E0742FDE
:102CC0006627552744276F29832F90E0982F882760
:102CD000A0E0B0E0842B952BA62BB72B822BBC0158
:102CE000CD019F701EC061E070E080E090E019C0EF
:102CF00061E070E080E090E014C061E070E080E0AE
:102D000090E00FC06FEF7FEFCB010BC06FEF7FEF55
:102D1000CB0107C06FEF7FEFCB0103C06FEF7FEFF9
:102D2000CB012896CDBFDEBFDF91CF911F910F91D0
:102D3000FF9008950F931F93CF93DF93CDB7DEB726
:102D40002C97CDBFDEBF8C016B877C878B859C85E4
:102D5000D80114968D939C93159716968D919D91FD
:102D60000D90BC91A02D89839A83AB83BC8389810C
:102D70009A81AB81BC810197A105B10509F4D2C04C
:102D8000D801ED91FC9142895389648975898981C3
:102D90009A81AB81BC8184179507A607B70708F015
:102DA000C3C089819A81AB81BC81892B8A2B8B2BF3
:102DB00059F48081833041F482A193A1A4A1B5A1EB
:102DC00089839A83AB83BC8389819A81AB81BC81DF
:102DD000892B8A2B8B2B89F4208531858B859C85CB
:102DE0008217930708F0A2C082A193A1A4A1B5A164
:102DF0008D839E83AF83B8875BC08281B0E18B9F58
:102E0000C001112489879A872B853C8589859A85FD
:102E10002817390708F440C049815A816B817C81A9
:102E2000F8018081918150DE69837A838B839C8352
:102E300049815A816B817C814F3F5F4F6F4F7F4F3C
:102E400009F476C089819A81AB81BC810297A10582
:102E5000B10508F46FC0D801ED91FC914289538906
:102E60006489758989819A81AB81BC8184179507B2
:102E7000A607B70708F060C08B859C8529853A8531
:102E8000821B930B8B879C872B853C8589859A8534
:102E90002817390708F0C0CF49815A816B817C819E
:102EA000F80180819181C2DD6D837E838F83988755
:102EB00089819A81AB81BC81F80182879387A4873D
:102EC000B5878D819E81AF81B885892B8A2B8B2B0D
:102ED000A9F12B853C858D819E81AF81B885329586
:102EE00022952F7023273F702327820F931FA11D48
:102EF000B11D86879787A08BB18B8B859C858F7042
:102F00009927880F991F82959295907F9827807FA7
:102F100098278E9620813181820F931F828B938B0D
:102F200080E00DC082E00BC082E009C082E007C0F3
:102F300081E005C082E003C082E001C082E02C96FF
:102F4000CDBFDEBFDF91CF911F910F9108958F927A
:102F50009F92AF92BF92EF92FF920F931F93CF93E6
:102F6000DF93CDB7DEB72A97CDBFDEBF7C014B83A1
:102F70005C836D837E830F83188729873A874B8113
:102F80005C816D817E81423051056105710508F4D7
:102F900046C1FC0142895389648975898B819C8172
:102FA000AD81BE8184179507A607B70708F039C120
:102FB0008081823009F48AC0833009F4BEC0813038
:102FC00009F028C18B819C81AD81BE8189839A8360
:102FD00089819A8129813A8196958795820F931FDD
:102FE00089839A83468D578D60A171A189819A81C9
:102FF000892F99278695480F591F611D711DC7019B
:103000000E94D40F811107C129813A8131708B81CF
:103010009C81AD81BE8180FF0FC0F701E20FF31FDD
:1030200086A54F81588569857A85F0E14F9FA0017B
:1030300011248F70842B04C08F819885A985BA854F
:10304000F701E20FF31F86A789819A810196898390
:103050009A8381E0F7018483468D578D60A171A129
:1030600089819A81892F99278695480F591F611D5B
:10307000711DC7010E94D40F8111CDC029813A81F1
:1030800031704B815C816D817E8140FF0DC04F812D
:10309000588569857A85689413F87695679557956C
:1030A00047951694D1F70DC0F701E20FF31FE6A57F
:1030B0004F81588569857A85E07F952F9F704E2FC7
:1030C000492BF701E20FF31F46A7A5C0F701868D34
:1030D000978DA0A1B1A14B815C816D817E81452F2F
:1030E000562F672F7727480F591F6A1F7B1FC7016D
:1030F0000E94D40F81118FC04B815C816D817E81D4
:10310000440F551F661F771F4E7F51706627772724
:10311000FA01BE96EE0DFF1D0F81188529853A85AF
:10312000D701A40FB51F9E960C934F8158856985D2
:103130007A85452F552741836EC0F701868D978D7F
:10314000A0A1B1A14B815C816D817E81689416F84C
:1031500076956795579547951694D1F7480F591F5F
:103160006A1F7B1FC7010E94D40F811154C04B817D
:103170005C816D817E81440F551F661F771F440F50
:10318000551F661F771F4C7F517066277727FA01FE
:10319000BE96EE0DFF1D038192819181D701A40F90
:1031A000B51F9E969C919E978F809884A984BA841F
:1031B00010E020E030E0302F2227112700270027E1
:1031C00011272227307F082919292A293B290F8313
:1031D000188729873A870F81188529853A859E9611
:1031E0000C934F81588569857A85452F55274183F2
:1031F0004F81588569857A85AB0166277727428399
:103200004F81588569857A85472F55276627772707
:10321000438301C082E091E0F701948303C082E020
:1032200001C082E02A96CDBFDEBFDF91CF911F9112
:103230000F91FF90EF90BF90AF909F908F90089567
:103240008F929F92AF92BF92EF92FF920F931F9334
:10325000CF93DF93CDB7DEB76097CDBFDEBF7C01E4
:103260004D875E876F87788B8D859E85AF85B88902
:10327000892B8A2B8B2B41F5F70182859385A485B9
:10328000B58589879A87AB87BC8789859A85AB8501
:10329000BC85892B8A2B8B2B71F0428953896489D9
:1032A000758989859A85AB85BC8584179507A6079E
:1032B000B70708F445C081E090E0A0E0B0E089875E
:1032C0009A87AB87BC873CC04D855E856F857889C2
:1032D000C701FADB69837A838B839C8389819A8116
:1032E000AB81BC810297A105B10508F4EDC08981CD
:1032F0009A81AB81BC818F3F9F4FAF4FBF4F29F465
:1033000069817A818B819C81EBC0F7014289538965
:103310006489758989819A81AB81BC8184179507FD
:10332000A607B70728F469817A818B819C81D8C070
:103330008D859E85AF85B88989879A87AB87BC873D
:1033400089859A85AB85BC858D839E83AF83B8873D
:10335000812C912C5401689481F88D819E81AF81DC
:10336000B8850196A11DB11D8D839E83AF83B8875B
:10337000F70182899389A489B5894D815E816F8126
:103380007885481759076A077B0790F08D829E82DF
:10339000AF82B8864D815E816F81788589859A85F7
:1033A000AB85BC8584179507A607B70708F491C0BD
:1033B0004D815E816F817885C70186DB69837A8361
:1033C0008B839C8389819A81AB81BC81892B8A2BD9
:1033D0008B2B29F189819A81AB81BC818F3F9F4FD3
:1033E000AF4FBF4F41F089819A81AB81BC8101977A
:1033F000A105B10529F469817A818B819C8170C016
:103400004D815E816F81788589859A85AB85BC8584
:10341000481759076A077B0709F09FCF5EC04D81A7
:103420005E816F8178850FEF1FEF2FEF3FE0C701BF
:103430008EDD811136C08D859E85AF85B889892B3B
:103440008A2B8B2B61F00D811E812F8138854D8554
:103450005E856F857889C7017ADD811122C08D81F3
:103460009E81AF81B885F70182879387A487B5874E
:1034700086859785A089B1898F3F9F4FAF4FBF4FFA
:10348000F1F0F70186859785A089B1890197A10997
:10349000B10986879787A08BB18B858181608583F1
:1034A0000EC0813021F48FEF9FEFDC0104C081E07A
:1034B00090E0A0E0B0E08D839E83AF83B8876D81FC
:1034C0007E818F8198850CC061E070E080E090E0A3
:1034D00007C060E070E0CB0103C060E070E0CB01AA
:1034E0006096CDBFDEBFDF91CF911F910F91FF900E
:1034F000EF90BF90AF909F908F900895EF92FF92C2
:103500000F931F93CF93DF93CDB7DEB72897CDBF2F
:10351000DEBF8C017B01DC0114968D919C91159787
:1035200001968D839E838D819E81892B09F42CC108
:103530001E964D915D916D917C915197452B462B37
:10354000472B09F423C18D819E818F709927892B88
:1035500009F000C11E968D919D910D90BC91A02DFA
:103560000196A11DB11DF80186879787A08BB18BAD
:1035700082859385A485B585892B8A2B8B2B61F455
:103580000190F081E02D208531858D819E8182170B
:10359000930708F0FDC0DEC02D813E81D801019067
:1035A000F081E02D828190E00197329522952F7075
:1035B00023273F70232782239323892B09F0CAC036
:1035C0001A964D915D916D917C911D97CF017CDA9A
:1035D00069837A838B839C8389819A81AB81BC8147
:1035E0000297A105B10508F4D5C089819A81AB8104
:1035F000BC818F3F9F4FAF4FBF4F09F4CDC0D80163
:10360000ED91FC9182899389A489B58949815A8178
:103610006B817C81481759076A077B0708F483C0D0
:10362000EF2809F4BBC0D8011A964D915D916D91B8
:103630007C911D97CF0104DE69837A838B839C8301
:1036400089819A81AB81BC81892B8A2B8B2B09F4D0
:10365000A7C089819A81AB81BC810197A105B10581
:1036600009F4A0C089819A81AB81BC818F3F9F4FB3
:10367000AF4FBF4F09F498C0D8018D919C910E9423
:10368000500F811193C0F8018081918140E052E098
:1036900060E070E08E960E947E0E49815A816B81B7
:1036A0007C81D801ED90FC90C701C0D9F70162A7D9
:1036B00073A784A795A71F821886FF24F3941BC0C5
:1036C000F482D8018D919C910E94500F811170C09D
:1036D000D801ED91FC9182A593A5A4A5B5A501966D
:1036E000A11DB11D82A793A7A4A7B5A78F81988517
:1036F00001968F839887D801ED91FC9122818F816B
:10370000988530E082179307D8F282A593A5A4A5E7
:10371000B5A52F813885821B930BA109B10982A71A
:1037200093A7A4A7B5A789819A81AB81BC81F80131
:1037300082879387A487B58749815A816B817C8171
:103740008081918173D9D8011E966D937D938D935D
:103750009C9351978D819E81F801848395838D81FF
:103760009E818F709927880F991F82959295907FDF
:103770009827807F98278E9620813181820F931F12
:10378000828B938B80E015C084E013C084E011C06D
:1037900084E00FC082E00DC081E00BC084E009C06E
:1037A00087E007C082E005C081E003C081E001C07E
:1037B00081E02896CDBFDEBFDF91CF911F910F91A1
:1037C000FF90EF9008953F924F925F926F927F9299
:1037D0008F929F92AF92BF92CF92DF92EF92FF9221
:1037E0000F931F93CF93DF93CDB7DEB72B97CDBF4A
:1037F000DEBF8C017B01DB018C918F3211F08C35A7
:1038000019F4BFEFEB1AFB0AF80116821782108633
:103810001186D7018C91803240F460E070E0C801DD
:1038200089DAF801128A138A92C10F2EFBE04F2E1B
:10383000F02D512C6894AA24A3F8B12C642C752C7B
:103840000F2EF7E58F2EF0E29F2EF02D0F2EF5E0D4
:103850003F2EF02DF7017F0181918F32E1F38C35FE
:10386000D1F3D8015496CD90DC905597442D552D29
:1038700060E270E0C6010E947E0E1B861A821B82E7
:103880001C821D82AE82BF828C819D819C012F5F34
:103890003F4F2C833D83F701E80FF91F80818A8712
:1038A0008A85813208F49EC08A858F3209F49AC0D5
:1038B0008A858C3509F496C08A858E3239F02A8142
:1038C0003B818E819F812817390790F08E819F81DF
:1038D000089709F01EC18A858E3209F01AC1AA82A2
:1038E000BB826E827F828B85880F880F8B87CCCFBF
:1038F0008A8588231CF48B8583608B878A85813831
:1039000018F08A85803A40F08A85803E08F4F5C038
:103910008A858D3F08F0F1C08C819D819C012F5FCD
:103920003F4F2C833D83F701E80FF91F8081898782
:103930008985803418F089858F3740F08985882300
:103940000CF0E7C089858D3F08F0E3C02E813F81F0
:103950008A819B81215031098217930708F0D9C0D1
:103960008A819B819C012F5F3F4F2A833B83F60115
:10397000E80FF91F2A8520838A819B819C012F5F94
:103980003F4F2A833B83F601E80FF91F29852083E7
:103990007BCF8191882309F4B7C090E028173907BD
:1039A000C1F7B7C08A858B3520F48B8582608B8701
:1039B0000CC08A85813648F08A858B3730F48B8538
:1039C00081608B878A8580528A878A819B819C014E
:1039D0002F5F3F4F2A833B83F601E80FF91F2A85AB
:1039E000208352CF8C819D81E80EF91E8A85813219
:1039F00010F484E001C080E08A878A819B81892B52
:103A000009F487C0F6018081853E09F430828E81F9
:103A10009F81089721F48B85880F880F8B878B8572
:103A20008370813019F48A8580618A878B858C70D8
:103A3000843019F48A8588608A878A85D6011B9626
:103A40008C9360E070E0C80175D9811164C0F80101
:103A50004685578560897189808191810E94D40F44
:103A6000811159C0D8015296ED91FC9153979081E4
:103A700098879885992309F458C0938593FD1AC0B7
:103A80005496CD90DC905597242D352DA9012150C9
:103A90003109452B09F451C0AF014F5F5F4FE08101
:103AA000B6016F5F7F4FD6019C91E91303C06B0194
:103AB000FA01ECCF60E070E0C80120DD882339F224
:103AC0002AC0898182FF15C012C0F80162897389FA
:103AD000DB011B968C9184FF0EC0808191810E9436
:103AE000A40EF8016683778380879187B3CE84E044
:103AF0002EC085E02CC085E02AC02A8530E0223225
:103B0000310539F0F40145CF8A85813408F04ACF78
:103B100050CF86E01CC0D8015496ED91FC9155978A
:103B200093859983843099F4CCCFD8015496ED9144
:103B3000FC91559783858983C4CFD8015496ED9124
:103B4000FC91559793859983998192FFBECF2B96CF
:103B5000CDBFDEBFDF91CF911F910F91FF90EF900E
:103B6000DF90CF90BF90AF909F908F907F906F909D
:103B70005F904F903F900895DF92EF92FF920F93E6
:103B80001F93CF93DF931F921F92CDB7DEB78C01A7
:103B9000EE24E394F12C60E070E0CCD8D82E8111B3
:103BA0002DC019821A82D8011E964D915D916D919A
:103BB0007C9151978D919C910E94D40FD82E8111A8
:103BC0001DC0D8015296ED91FC9153978081853E9E
:103BD00019F08081811109C089819A8101968983B8
:103BE0009A838E159F0519F40EC019821A8261E01E
:103BF00070E0C80183DCD82E8823A9F2B4E0DB167C
:103C000041F1D1102AC0F801468557856089718934
:103C1000808191810E94D40FD82E81111EC040E274
:103C200050E060E070E0D80152968D919C915397DE
:103C30000E947E0EF801648975894BE050E082890C
:103C400093890E94520ED801ED91FC9181E084830A
:103C500004C00F2EF7E0DF2EF02D8D2D0F900F906A
:103C6000DF91CF911F910F91FF90EF90DF9008951A
:103C7000EF92FF920F931F93CF93DF93CDB7DEB7F1
:103C80002897CDBFDEBF7C014D835E836F8378872D
:103C90008D819E81AF81B8850297A105B10508F499
:103CA00081C0F70142895389648975898D819E811C
:103CB000AF81B88584179507A607B70708F074C0C9
:103CC00042895389648975898D819E81AF81B885C8
:103CD00084179507A607B70708F068C04D815E8175
:103CE0006F817885C7010E94641569837A838B830D
:103CF0009C8349815A816B817C81452B462B472BC4
:103D000009F456C089819A81AB81BC810197A105D4
:103D1000B10509F44FC089819A81AB81BC818F3F85
:103D20009F4FAF4FBF4F09F447C04D815E816F81F8
:103D3000788500E010E09801C70109D981113DC0E4
:103D4000F70146855785608971894F3F5F4F6F4FF7
:103D50007F4F81F0F70146855785608971894F5FF4
:103D60005F4F6F4F7F4F46875787608B718B958171
:103D70009160958349815A816B817C814D835E83FB
:103D80006F837887F70102891389248935894D81EA
:103D90005E816F817885401751076207730708F4C9
:103DA0009DCF0BC082E009C082E007C080E005C063
:103DB00080E003C082E001C081E02896CDBFDEBF75
:103DC000DF91CF911F910F91FF90EF900895CF93C6
:103DD000DF93CDB7DEB72797CDBFDEBF8B839C8344
:103DE0006D837E834F8369837A83CE0101960E941F
:103DF000040F99233CF1FC01EE0FFF1FE45AFE4D26
:103E00000190F081E02D309709F01082EB81FC8168
:103E10003097F1F010822B813C81FC01EE0FFF1FE7
:103E2000E45AFE4D20833183232B71F08F81813042
:103E300069F440E0BE016B5F7F4FCE0103960E94A4
:103E4000BD100EC08BE00CC080E00AC080E008C04E
:103E5000FC01EE0FFF1FE45AFE4D1082118280E03C
:103E60002796CDBFDEBFDF91CF910895EF92FF92ED
:103E70000F931F93CF93DF93CDB7DEB7AD97CDBF31
:103E8000DEBF8C016BA77CA74DA7009709F40EC17C
:103E9000DC011D921C928DA58F718DA74DA54E7FC3
:103EA000BE01655D7F4FCE0101960E94BD1081115C
:103EB00015C1CE0147968D8B9E8B6BA57CA5469731
:103EC00082DCEB88FC888111F9C0E114F10409F06F
:103ED000EFC0F3C0882371F0843009F0FCC0CE013C
:103EE00001964ADE9DA598609DA7EB88FC888823F3
:103EF00049F0F4C0F7018385817109F0E4C08DA514
:103F000082FDE3C08DA583FF79C00E94D4336FA3E7
:103F100078A789A79AA78FA198A5A9A5BAA5F701FF
:103F200086878FA198A5A9A5BAA5892F99278787E4
:103F30008FA198A5A9A5BAA5CD01AA27BB27808BDB
:103F40008FA198A5A9A5BAA58B2F9927AA27BB272A
:103F5000818B1386148E158E168E178EB70189816C
:103F60009A810E94A40E6BA37CA38DA39EA340E024
:103F700050E0BA01C7010E94D80EE981FA8181E0C0
:103F800084834BA15CA16DA17EA1452B462B472BC1
:103F9000A9F142A553A564A575A54FA358A769A784
:103FA0007AA74BA15CA16DA17EA1CF0161DE811139
:103FB00095C089819A814BA15CA16DA17EA14150E0
:103FC000510961097109DC011A964D935D936D9356
:103FD0007C931D974FA158A569A57AA50E94D40F7F
:103FE0000BC0F701838584FD72C08DA581FF06C0DB
:103FF000838580FD6EC002C0811170C08DA583FFD6
:1040000003C08DA580628DA789819A81DC019A9673
:104010004D915D916D917C919D97F801428F538FE9
:10402000648F758FE68EF78E2DA524831582B701D8
:104030000E94A40ED8011E966D937D938D939C9340
:104040005197F701278D468D858D948D50E060E066
:1040500070E0BA0155274427722B492B90E0982F26
:104060008827A0E0B0E0482B592B6A2B7B2BD80186
:104070001A964D935D936D937C931D97F80116826C
:1040800017821086118656961D921D921D921C92C3
:104090005997E981FA81ED93FC9311978681978175
:1040A00012968D939C93139780E018C089E016C0F8
:1040B0008DA58C7109F01ECF94CF86E09DA59C71D3
:1040C00009F008CF99CF87E009C088E007C084E0F5
:1040D00005C087E003C09DA598609DA7AD96CDBFA4
:1040E000DEBFDF91CF911F910F91FF90EF90089568
:1040F0006F927F928F929F92AF92BF92CF92DF92F8
:10410000EF92FF920F931F93CF93DF93CDB7DEB75C
:104110002F97CDBFDEBF7C015B014E875F876901B2
:10412000D9011D921C920E949810811124C2F7019E
:104130008581882311F085811EC2848181FF1AC286
:1041400046815781608571852E853F85868197815F
:10415000A085B185420F531F611D711D4817590776
:104160006A077B0710F41E861F868E859F85892B24
:1041700009F4E1C1812C6894992491F83701B0E2E7
:104180006B0E711CF70186819781A085B1859170B6
:10419000AA27BB27892B8A2B8B2B09F075C1468157
:1041A0005781608571850190F081E02D8281032E19
:1041B00039E076956795579547953A95D1F7302D23
:1041C000815048234D878D85811170C0D701169687
:1041D0004D915D916D917C911997452B462B472B05
:1041E000E1F41E964D915D916D917C9151974983BB
:1041F0005A836B837C8349815A816B817C81452BF7
:10420000462B472BB9F440E050E0BA01CF0118D853
:1042100069837A838B839C830DC0D70152964D911D
:104220005D916D917C915597CF010AD869837A830E
:104230008B839C8389819A81AB81BC81892B8A2B5A
:104240008B2B09F478C189819A81AB81BC8101975C
:10425000A105B10521F482E0F70185838CC1898134
:104260009A81AB81BC818F3F9F4FAF4FBF4F29F4E5
:1042700081E0D70115968C937EC189819A81AB81AB
:10428000BC81F701828B938BA48BB58B8685978538
:10429000A089B189892B8A2B8B2B41F489819A8142
:1042A000AB81BC8186879787A08BB18BD701149691
:1042B0008C91149786FF1BC056962D913D914D9180
:1042C0005C915997ED91FC91818101E010E0B3017F
:1042D0000E94B337882321F081E0F70185834BC129
:1042E000D70114968C9114978F7B14968C93F701B9
:1042F0004289538964897589808191810E9416154C
:104300006D837E838F8398878D819E81AF81B885F1
:10431000892B8A2B8B2B29F482E0D70115968C935D
:104320002AC12D858D819E81AF81B885820F911D17
:10433000A11DB11D8D839E83AF83B8878E859F8518
:10434000892F992786958B879C878B859C85892BC0
:1043500009F462C09D852B853C85D701ED91FC91C8
:104360008281290F311D90E08217930738F48281F2
:104370002D8590E0821B91098B879C870B851C857E
:104380002D813E814F8158858181B5010E94B337CF
:10439000882321F081E0F7018583EDC0D70156968F
:1043A0004D915D916D917C9159970D811E812F8169
:1043B00038858B859C85401B510B620B730BA0E0ED
:1043C000B0E0481759076A077B07F0F4F7018689C0
:1043D0009789A08DB18D4D815E816F817885841B19
:1043E000950BA60BB70B982F8827990FB501680F6F
:1043F000791FA401C3010E94520ED70114968C911B
:1044000014978F7B14968C938B859C85982F882787
:10441000990F89879A8765C0F70146895789608D0A
:10442000718D8D819E81AF81B885481759076A07C4
:104430007B0709F146815781608571858285938567
:10444000A485B585481759076A077B07A0F42D8115
:104450003E814F8158850190F081E02D818101E0FE
:1044600010E0B3010E94F636882329F081E0D701DD
:1044700015968C9380C08D819E81AF81B885F701A0
:10448000868B978BA08FB18FF70186819781A0854E
:10449000B18591709401281B390B29873A872985AA
:1044A0003A858E859F858217930720F48E859F8598
:1044B00089879A8749855A85F70186819781A085E2
:1044C000B1859170AA27BB278096B5018E0D9F1DDF
:1044D0000E94520ED70114968C9114978064149602
:1044E0008C9389859A85A80EB91EF70186819781DC
:1044F000A085B18529853A85820F931FA11DB11D25
:1045000086839783A087B187D6012D913C9111971F
:1045100089859A85820F931F8D939C938E859F85A5
:1045200029853A85821B930B8E879F878E859F8571
:10453000892B09F027CEF701468157816085718567
:1045400082859385A485B58584179507A607B70747
:1045500040F486819781A085B18582879387A4875F
:10456000B587D70114968C911497806214968C931A
:1045700080E001C087E02F96CDBFDEBFDF91CF91F5
:104580001F910F91FF90EF90DF90CF90BF90AF9071
:104590009F908F907F906F900895DF92EF92FF929F
:1045A0000F931F93CF93DF931F921F92CDB7DEB768
:1045B0008C01D62E2AE0621302C06DE0EEDFF80116
:1045C00082819381992364F17C01FFEFEF1AFF0A46
:1045D000F801E80FF91FD6822DE3E216F104C4F0CA
:1045E0009E012F5F3F4FA701B8016A5F7F4FF8011F
:1045F000808191817DDD29813A8181E090E0E21620
:10460000F30611F480E090E0EE24FF24E81AF90AA2
:10461000F801E282F38284819581019684839583F7
:104620000F900F90DF91CF911F910F91FF90EF901E
:10463000DF900895EF92FF920F931F93CF93DF9334
:1046400000D01F92CDB7DEB77C010E949810811177
:10465000A1C0D70114968C91149785FF98C0149629
:104660008C91149786FF16C056962D913D914D91D1
:104670005C915997ED91FC91818101E010E0B701C7
:10468000605E7F4F0E94B337811183C0F701848140
:104690008F7B8483D7015A964D915D916D917C916A
:1046A0005D978D919C910E94D40F811173C0F70189
:1046B000068D178DD8011B968C911B9780621B96D7
:1046C0008C9382859385A485B585F801848FF70145
:1046D00082859385A485B585892F9927D8015D9614
:1046E0008C9382859385A485B585CD01AA27BB27A8
:1046F000F801868FF70182859385A485B5858B2F78
:104700009927AA27BB27F801878FD7011E964D91BD
:104710005D916D917C915197C8010E94D80E0E94C5
:10472000D43369837A838B839C8389819A81AB811B
:10473000BC81F801868B89819A81AB81BC81892FEC
:104740009927878B89819A81AB81BC81CD01AA276A
:10475000BB27808F49815A816B817C81472F5527E8
:1047600066277727418F128A138AD70114968C9176
:1047700014978F7D14968C931497ED91FC9111975B
:1047800081E084838D919C910E94771403C080E026
:1047900001C081E02496CDBFDEBFDF91CF911F9194
:1047A0000F91FF90EF900895CF93DF93EC0142DFDC
:1047B000811107C0CE010E949810811102C0188299
:1047C0001982DF91CF9108954F925F926F927F92FD
:1047D0008F929F92AF92BF92CF92DF92EF92FF9211
:1047E0000F931F93CF93DF93CDB7DEB76897CDBFFD
:1047F000DEBF7C01498B5A8B6B8B7C8B0E9498109F
:10480000811171C2D70115968C911597882319F0E3
:1048100015968C9168C2F70142855385648575852C
:1048200089899A89AB89BC89481759076A077B0728
:1048300058F4848181FD08C082859385A485B5855F
:10484000898B9A8BAB8BBC8BF70186819781A08576
:10485000B18589839A83AB83BC831D821E821F82AC
:104860001886168217821086118689899A89AB89E3
:10487000BC89892B8A2B8B2B09F4BFC10081118144
:10488000D80112968C9190E0A0E0B0E0072E79E07C
:10489000880F991FAA1FBB1F7A95D1F7702D8987A2
:1048A0009A87AB87BC8749815A816B817C81452B74
:1048B000462B472B09F463C089899A89AB89BC8947
:1048C00029853A854B855C85A980BA80CB80DC80C0
:1048D000AD8ABE8ACF8AD88E49845A846B847C8400
:1048E000BC01CD0161507109810991090E94903C80
:1048F00049015A016D897E898F89988D61507109AE
:1049000081099109A30192010E94903C82169306AD
:10491000A406B506A0F189819A81AB81BC81498545
:104920005A856B857C8570956095509541955F4F54
:104930006F4F7F4F0197A109B10984239523A623C7
:10494000B723F70186839783A087B18789899A89DE
:10495000AB89BC894681578160857185841B950B25
:10496000A60BB70B898B9A8BAB8BBC8B82899389F7
:10497000A489B5898D879E87AF87B88B48C0F7011A
:1049800086859785A089B1898D879E87AF87B88BEB
:104990008D859E85AF85B889892B8A2B8B2B71F5E8
:1049A00040E050E0BA01C8010E9420196D877E875F
:1049B0008F87988B8D859E85AF85B8890197A105D6
:1049C000B10529F482E0D70115968C938CC18D85B1
:1049D0009E85AF85B8898F3F9F4FAF4FBF4F29F45A
:1049E00081E0D70115968C937EC18D859E85AF851C
:1049F000B889F70186879787A08BB18B8D859E85B7
:104A0000AF85B889F701828B938BA48BB58B8D858D
:104A10009E85AF85B889892B8A2B8B2B09F4EDC035
:104A200049895A896B897C8989859A85AB85BC853A
:104A300084179507A607B70708F091C0D701149609
:104A40008C91149781FF1DC04D855E856F85788997
:104A50008D919C910E9420196D877E878F87988BFE
:104A60008D859E85AF85B889892B8A2B8B2BB1F4D8
:104A700089859A85AB85BC85898B9A8BAB8BBC8BE2
:104A80006EC04D855E856F857889F7018081918143
:104A90000E9464156D877E878F87988B4D855E8514
:104AA0006F8578894F3F5F4F6F4F7F4F29F481E0CB
:104AB000D70115968C9317C18D859E85AF85B889D2
:104AC0000297A105B10580F0D701ED91FC914289D3
:104AD0005389648975898D859E85AF85B8898417CA
:104AE0009507A607B70720F082E0F7018583FBC092
:104AF0008D859E85AF85B889F701828B938BA48BBA
:104B0000B58B86819781A085B18549855A856B854E
:104B10007C85840F951FA61FB71F86839783A08768
:104B2000B18789899A89AB89BC8949855A856B8502
:104B30007C85841B950BA60BB70B898B9A8BAB8B53
:104B4000BC8B49895A896B897C8989859A85AB8513
:104B5000BC8584179507A607B70708F46FCFF70140
:104B600086819781A085B18549895A896B897C891D
:104B7000840F951FA61FB71F86839783A087B187D1
:104B800089899A89AB89BC899170AA27BB27892B0F
:104B90008A2B8B2B91F14D855E856F85788980817D
:104BA00091810E9416156D837E838F8398878D81F6
:104BB0009E81AF81B885892B8A2B8B2B29F482E0CB
:104BC000D70115968C938FC089899A89AB89BC8946
:104BD0004D815E816F817885072E79E0B695A79526
:104BE000979587957A95D1F7702D840F951FA61FFD
:104BF000B71F8D839E83AF83B887F7018681978126
:104C0000A085B1859170AA27BB27892B8A2B8B2B76
:104C100009F448C046895789608D718D8D819E81C8
:104C2000AF81B885481759076A077B07D9F1848196
:104C300086FF1AC026893789408D518D0190F081F9
:104C4000E02D818101E010E0B701605E7F4F0E949E
:104C5000B337882329F081E0D70115968C9343C0A0
:104C6000F70184818F7B84832D813E814F8158851C
:104C7000D701ED91FC91818101E010E0B701605E08
:104C80007F4F0E94F636882321F081E0F70185836B
:104C90002AC08D819E81AF81B885F701868B978B65
:104CA000A08FB18FD70116964D915D916D917C913A
:104CB00019971A968D919D910D90BC91A02D8417F6
:104CC0009507A607B70770F4F70186819781A0853D
:104CD000B18582879387A487B58784818062848326
:104CE00080E001C080E06896CDBFDEBFDF91CF914C
:104CF0001F910F91FF90EF90DF90CF90BF90AF90FA
:104D00009F908F907F906F905F904F900895CF937A
:104D1000DF93CDB7DEB7C854D109CDBFDEBF6983FD
:104D20007A831B821C821D821E82682FCE0101960F
:104D300034DC4B815C815523BCF09E01295B3F4FE5
:104D4000BE01695F7F4F89819A81D2D981110FC0DD
:104D500029968EAD9FAD29972B813C812817390765
:104D600049F48D819E8108C08FEF9FEF05C08FEFC2
:104D70009FEF02C08FEF9FEFC85BDF4FCDBFDEBF5D
:104D8000DF91CF9108950F931F93CF93DF93CDB70A
:104D9000DEB7C854D109CDBFDEBF69837A831B82D9
:104DA0001C821D821E82FC016081662359F08C01E9
:104DB0000F5F1F4FCE010196F0DBF80161918F016B
:104DC0006111F8CF4B815C815523BCF09E01295BBA
:104DD0003F4FBE01695F7F4F89819A8189D98111D7
:104DE0000FC029968EAD9FAD29972B813C81281746
:104DF000390749F48D819E8108C08FEF9FEF05C070
:104E00008FEF9FEF02C08FEF9FEFC85BDF4FCDBFEB
:104E1000DEBFDF91CF911F910F910895AF92BF92A6
:104E2000CF92EF920F93CF93DF93EC018BE0E0E210
:104E3000F0E2DE0101900D928A95E1F78AE0EBE263
:104E4000F0E2DE011B9601900D928A95E1F7FE01DA
:104E5000EE5AFF4F1082319610825E0184E5A80E53
:104E6000B11C40E550E06CED70E0C5010E94C03A15
:104E70000F2EF0E5CF2EF02D0F2EFCE0EF2EF02DB3
:104E800000E023E040E060EB79E0C5010E94D33A06
:104E90001D8A1E8ADE01579680E01D928F5F8B333C
:104EA000E1F7DF91CF910F91EF90CF90BF90AF904E
:104EB00008950F931F93CA0120E3FA012083062F60
:104EC00010E00730110500F5F801E25EFE4F0C948A
:104ED000B23C20E3FA01218317C021E3FA012183C8
:104EE00013C022E3FA0121830FC023E3FA012183D7
:104EF0000BC024E3FA01218307C025E3FA012183D3
:104F000003C028E3FA0121831F910F910895AF9206
:104F1000BF92CF92DF92EF92FF920F931F93CF93A6
:104F2000DF9300D000D0CDB7DEB76C01A62E4E8344
:104F30001D822D818C010C5A1F4F49E050E065E61F
:104F400070E2C8010E946A3B8D83BD80CE0101964C
:104F50007C01AC016A2DC601ACDF2B2D42E050E094
:104F6000BC01C8010E946A3B8D832D8144E050E062
:104F70006FE670E2C8010E946A3B8D838E811F92AA
:104F80008F9384E790E29F938F93FF92EF920E941A
:104F90001F3E2D8143E050E0B701C8010E946A3BEB
:104FA0008D832D8144E050E069E770E2C8010E94E2
:104FB0006A3B8D83DD808D8140E1B70190E00E94E6
:104FC000FC3D2D2D42E050E0BC01C8010E946A3B2F
:104FD0002D8142E050E06BE870E2C8010E946A3B1C
:104FE0000F900F900F900F900F900F902696CDBFBF
:104FF000DEBFDF91CF911F910F91FF90EF90DF9077
:10500000CF90BF90AF900895CF93DF93EC0120E055
:105010004FE050E06EE770E28C5A9F4F0E946A3B6F
:105020002FEF83EC99E0215080409040E1F700C0E1
:10503000000040E060E0CE016ADF2FEF83EC99E0F2
:10504000215080409040E1F700C0000040E065E062
:10505000CE015DDF2FEF83EC99E02150804090403E
:10506000E1F700C0000040E062E0CE0150DF2FEF2A
:1050700083EC99E0215080409040E1F700C00000AF
:1050800040E061E0CE0143DF2FEF83EC99E0215057
:1050900080409040E1F700C0000041E063E0CE01B5
:1050A00036DF2FEF83EC99E0215080409040E1F70C
:1050B00000C0000040E064E0CE0129DF2FEF83EC68
:1050C00099E0215080409040E1F700C0000040E0AE
:1050D00066E0CE011CDFDF91CF910895FF920F9320
:1050E0001F93CF93DF93EC018C010C5A1F4FC80123
:1050F0000E94663BFC01F080FE01EE5AFF4F80816A
:10510000882361F06F2DC8010E94523BFAE0FF1224
:1051100005C0CD5ADF4F88818F5F8883DF91CF91A3
:105120001F910F91FF9008955F926F927F928F92DF
:105130009F92AF92BF92CF92DF92EF92FF920F9326
:105140001F93CF93DF934C01FC01ED5AFF4F8081F9
:10515000882309F47AC0823088F0E401CC5ADF4F0A
:105160008F01CE010E94563B8A30D9F7F894F8019E
:105170008081815080837894823098F7E401CC5A02
:10518000DF4F6C2E5D2ECE010E94563B8C32C9F74C
:1051900054016401FAE0CF0ED11C8401EE24E394A3
:1051A000F12CE801CA19DB09F80171908F01C701E0
:1051B00002C0880F991FCA95E2F7EC0114C0272D91
:1051C00030E0F401E20FF31F9789981739F0F401EA
:1051D000458956894C2B5D2B458B568B7394F40176
:1051E000E20FF31F878B862D952D0E94563B8C3244
:1051F00031F7F80140817416B0F4272D30E0F40146
:10520000E20FF31F8789882339F0F4018589968995
:105210008C2B9D2B858B968B7394F401E20FF31FDF
:10522000178A741650F30C151D0509F0BACF862D98
:10523000952D0E94563B8A30D1F7F894F401ED5A2F
:10524000FF4F8081815080837894DF91CF911F91AF
:105250000F91FF90EF90DF90CF90BF90AF909F9015
:105260008F907F906F905F900895FC01858996895B
:105270000895FC01158A168A0895EF92FF920F9304
:105280001F93CF93DF93C62FD0E0FC01EC0FFD1FDF
:105290000081202F30E063857901E60EF11C2E1588
:1052A0003F0564F5FC01E20FF31F2789DA012C9317
:1052B0002789222341F1102FC80FD91FBE01655F36
:1052C0007F4F0CC0FC01E20FF31F27897A01EA0E21
:1052D000F11CD7012C9327892223A9F01F5FA12F4E
:1052E000A01B212F30E0B881FB01F080EF2DF0E012
:1052F000EB0FF11D2E173F072CF301C0A0E0FA01C0
:10530000EA0FF11D1082CA01DF91CF911F910F9119
:10531000FF90EF9008950F931F93CF93DF93EC01CD
:10532000CC5ADF4FCE010E945E3B81110AC0CE01F4
:105330000E94663B8C01CE010E94623BF801808393
:1053400007C0CE010E94663BFC0123812C7F238392
:10535000DF91CF911F910F9108958E5A9F4F21E0B9
:10536000FC0120830895DC01E0E6F6E081818160A4
:1053700081838481816084838FEFE0E4F6E0818320
:10538000E0E0F6E0818188608183818184608183AF
:105390008181826081838181816081838481816058
:1053A000848384818460848384818860848384810D
:1053B0008260848355961C9255971A961D921C9272
:1053C0001B971C961D921C921D9781E054968C93FE
:1053D000549750961D921C92519780E491E0169636
:1053E0008D939C93179780EE91E018968D939C93E4
:1053F00019970895CF93DF93EC0140EE51E060E4FC
:1054000071E00E9488058EED90E288839983CE0139
:10541000AADFDF91CF910895E0E4F6E06483E0E055
:10542000F6E084818B7F8483848184608483089503
:10543000CF93DF93E0E0F6E0248121602483248190
:1054400024602483248128602483E0E6F6E024811C
:105450002E7F2483E7EEF3E03197F1F700C00000E0
:10546000E0E6F6E0248121602483C0E0D6E02C81D0
:105470002E7F2C832C812D7F2C8360E0CDDF8C81CF
:105480008B7F8C838C8184608C838C818B7F8C83DD
:105490008C8184608C838C818B7F8C838C818460F5
:1054A0008C838C8181608C83DF91CF910895EF9202
:1054B000FF920F931F93CF93DF93CDB7DEB725975E
:1054C000CDBFDEBF8C011D82B3DF2FE788E391E003
:1054D000215080409040E1F700C00000E0E0F6E09D
:1054E00084818E7F84830F2EE12CF6E0FF2EF02D39
:1054F00049C0ED8181E08E0F8D83F0E0EC56FF4DC9
:1055000080818C83ED8181E08E0F8D83F0E0EC56FD
:10551000FF4D80818B838C8181110AC0EFEBF4ED0C
:1055200021E0E150F0402040E1F700C000002AC037
:10553000F70184818E7F848384818D7F84836C8155
:10554000C8016ADFF7018481826084831A829A81AC
:105550008B81981798F4ED8181E08E0F8D83F0E0B8
:10556000EC56FF4D808189836981C80155DF8A81AE
:105570008F5F8A839A818B81981768F3F701848102
:10558000816084838D81863408F4B3CF2596CDBFA6
:10559000DEBFDF91CF911F910F91FF90EF900895A3
:1055A0004F925F926F927F92AF92BF92CF92DF92B3
:1055B000EF92FF920F931F93CF93DF93CDB7DEB798
:1055C0002897CDBFDEBF8C01D62EC72E29013A0108
:1055D000B72EA62E0F2EE12CF6E0FF2EF02DF701B0
:1055E00084818E7F848384818D7F84836CE2C80173
:1055F00013DFF7018481826084836C2DC8010CDF86
:105600006D2DC80109DFCD1038C01D821E821F829A
:10561000188673016201F1E0CF1AD108E108F108A0
:105620008D819E81AF81B8858C159D05AE05BF0526
:1056300008F051C0E0E0F6E084818B7F84838481B0
:105640008460848384818B7F848384818460848369
:105650008D819E81AF81B8850196A11DB11D8D837D
:105660009E83AF83B8878D819E81AF81B8858C156D
:105670009D05AE05BF0500F32EC019821A821B825C
:105680001C827301620181E0C81AD108E108F108A7
:1056900089819A81AB81BC818C159D05AE05BF05C2
:1056A000D0F46B2DC801B8DE6A2DC801B5DE898142
:1056B0009A81AB81BC810196A11DB11D89839A831A
:1056C000AB83BC8349815A816B817C814C155D051C
:1056D0006E057F0530F3E0E0F6E08481816084832D
:1056E0002896CDBFDEBFDF91CF911F910F91FF9024
:1056F000EF90DF90CF90BF90AF907F906F905F90D2
:105700004F900895CF92DF92EF92FF920F931F93E5
:10571000CF93DF93EC0169017A0100E016E0F80114
:1057200084818E7F848384818D7F8483CE0174DE27
:10573000F801848182608483F6E0FA95F1F700C075
:105740006F2D772788279927CE0166DE86E08A9518
:10575000F1F700C0B70188279927CE015DDEE6E0AA
:10576000EA95F1F700C099278F2D7E2D6D2DCE0182
:1057700053DEF6E0FA95F1F700C06C2DCE014CDE59
:10578000E0E0F6E0848181608483DF91CF911F9116
:105790000F91FF90EF90DF90CF900895CF92DF921E
:1057A000EF92FF920F931F93CF93DF937C016A01D7
:1057B000C901C0E0D6E02C812E7F2C83AB0160E0D4
:1057C00070E0BA0155274427A0E0B0E09A01AB0190
:1057D000282B392B4A2B5B2B6AE2C70193DFA601EA
:1057E00060E070E0BA015527442720E030E0DB019B
:1057F000CA01802B912BA22BB32B9C01AD016BE234
:10580000C70180DF8C8181608C83DF91CF911F91F4
:105810000F91FF90EF90DF90CF900895FF920F933C
:105820001F93CF93DF93EC010E941A07E0E0F6E0AC
:1058300084818E7F84838D89813031F088F082303D
:1058400041F0833041F010C00F2EF0EAFF2EF02D12
:105850000BC0F12C09C00F2EF0E6FF2EF02D04C076
:105860000F2EF0ECFF2EF02D00E016E0F801848101
:105870008D7F848366E3CE01CFDDF8018481826071
:1058800084836F2DCE01C8DD08851985015011096B
:105890002E813F812150310940E050E060E070E00E
:1058A000CE017CDFDF91CF911F910F91FF90089582
:1058B000CF92DF92EF92FF920F931F93CF93DF93DC
:1058C000EC01D22EC32E7723C4F15523B4F18E817F
:1058D0009F81681779078CF588859985481759073E
:1058E00064F50F2EE12CF6E0FF2EF02DF7018481F8
:1058F0008E7F848308851985015011098E819F81CF
:105900009C0121503109CE0149DFF70184818E7F4E
:10591000848384818D7F84836CE2CE017DDDF701F9
:105920008481826084836C2DCE0176DD6D2DCE0165
:1059300073DDF701848181608483DF91CF911F91B2
:105940000F91FF90EF90DF90CF900895EF92FF922C
:105950000F931F93CF93DF93EC017B01088519858B
:10596000015011092E813F812150310940E050E062
:1059700060E070E013DF20E038E542E050E0B7017E
:10598000CE010EDEDF91CF911F910F91FF90EF902E
:1059900008950F931F93CF93DF93EC01FB01608178
:1059A000662379F08F010F5F1F4FE881F98100882E
:1059B000F189E02DCE011995F80161918F016111F6
:1059C000F4CFDF91CF911F910F910895E9C608950B
:1059D0000F931F93CF93DF93EC0188819981DC01B2
:1059E000ED91FC910484F585E02D60E070E019955F
:1059F00088819981DC01ED91FC910480F581E02D95
:105A00000FEF1FEF20E431E040E050E06FEE70E078
:105A1000199588819981DC01ED91FC910680F781CF
:105A2000E02D20EE31E047E750E060E070E01995AE
:105A300088819981DC01ED91FC910680F781E02D50
:105A400020EE31E04FEE50E060E070E0199540E06C
:105A500050E06FEF7FEF888199810E94110762E02B
:105A6000888199810E940B0742E350E068EC70E066
:105A7000888199810E94030760EF70E28881998193
:105A800088DF44EB50E068EC70E0888199810E94E7
:105A9000030764EF70E2888199817BDF4CE251E07B
:105AA0006AE070E0888199810E94030768EF70E2E4
:105AB000888199816EDF4CE251E069EF70E0888166
:105AC00099810E9403076DEF70E28881998161DFFF
:105AD0004BE450E06DEA71E0888199810E940307F0
